:040000006F00C04588
:100004000000000000000000600100006201000028
:10001400000000005A04000000000000000000007E
:100024005A0400005A040000000000000000000010
:100034005A040000000000005A0400000000000000
:100044005A0400005A0400005A0400005A04000034
:100054005A0400005A040000A40E00005A040000D0
:100064005A0400005A0400005A0400005A04000014
:100074005A0400005A0400005A0400005A04000004
:100084005A0400005A0400005A0400005A040000F4
:100094005A0400005A0400005A040000160F00001D
:1000A4005A0400005A0400005A0400005A040000D4
:1000B4005A0400005A0400005A0400005A040000C4
:1000C4005A0400005A0400005A0400005A040000B4
:1000D4005A0400005A0400005A0400005A040000A4
:1000E4005A0400005A0400005A0400005A04000094
:0C00F4005A0400005A0400005A040000E6
:10010000397101436EC619A0397141536AC866CA74
:1001100062CC5ECE19A0397101535AD056D252D456
:100120004ED64AD826DA22DC06DE330161408282CE
:1001300041114AC026C222C406C68282B24D410184
:10014000024D924C224CB24B4101024B924A224A40
:10015000B2494101024992442244B24041018280A5
:1001600001A0B707EFBE37E700E0938707083CC759
:1001700001A0EFF27FF9892CEF10E01EEF00B0250F
:10018000EF106018EF00E074EF00303EEF00104613
:10019000EF00702DEF10C00F0545C125EF00901343
:1001A000372600001306C65785450545EF00901B0E
:1001B000372600001306C65885450945EF00901AFA
:1001C000372600001306C65985450D45EF009019E6
:1001D000372600001306465A85451145EF00901852
:1001E000372600001306C65AA1451145EF009017A7
:1001F000B727000003AC8757372B0000B72B000050
:10020000B7090020EF009034938A81802390AA00E0
:10021000EF10400903D60A001384C18008C091463C
:1002200099450545EF00F016084093050000938CB2
:100230008180EF10701A13864B5B63440500130630
:100240008B5B8D450945EF00F0110840EF2000035E
:100250002A868D4691450945EF00B013832A040094
:100260005685EF20A001EF20C006AA855685EF1025
:100270007048E285EF10101FEF2040002A868D465F
:10028000A1450945EF00F010EF00505003D6490199
:1002900091468D451145EF00D00F03C661808D4614
:1002A000A9451145EF00F00E03D70C0083D7490193
:1002B000637BF70003C56180EF20A0010C40EF10C5
:1002C000B0116348A000A12DEF005030EF102008BE
:1002D00015BF2D25EF00902DEF10E00525B7B717BE
:1002E00002409843B706FFF041111367170098C307
:1002F000D84337060200758FD8C39843B706F7FE78
:10030000FD16758F98C39843B706FCFFFD16758FD1
:1003100098C3D843B70601FFFD16758FD8C33707BA
:100320009F0098C702C402C69843C166558F98C300
:10033000B716024005679C42F18F3EC6A24785076B
:100340003EC4B24781E7A247E397E7FEB7170240F2
:100350009C431397E7006357070685473EC632471D
:100360008547631FF704B7170240D843B706C1FF9C
:10037000FD16D8C3D843D8C3D84313670740D8C3A2
:10038000D843758FD8C3D843B7062900558FD8C333
:100390009843B7060001558F98C39843931667009A
:1003A000E3DD06FED843B7160240719BD8C3D8439D
:1003B00013672700D8C32147DC42B18BE39EE7FED9
:1003C0004101828002C661BFB7160240DC42370796
:1003D00000201146B18B130707016385C700214632
:1003E0006388C702B7177A00938707201CC3B71723
:1003F0000240DC43918393F6F700B7070020938710
:100400000700B69794231C43B3D7D7001CC3828040
:10041000DC42D4424166C983BD8BF18E89074546D3
:100420006393C700C94781EEB746024083A60680A2
:10043000C18A89CEB7167A009386062021A8B716FE
:100440000240D4421396E600E35606FEB7163D007E
:1004500093860690B387D70251BF01A09701002071
:100460009381413B175100201301C1B9173500009A
:1004700013054596970500209385C5B8138681809E
:1004800063FAC5008322050023A0550011059105DC
:10049000E3EAC5FE13858180938501826377B50009
:1004A000232005001105E36DB5FEFD42739002BCEB
:1004B0008D427390428093028008739002309702BD
:1004C0000000938262B493E2320073905230EFF0F6
:1004D0001FE197020000938202CA739012347300E6
:1004E00020305C413707F1E01307F7EF944D7D8F23
:1004F0009C41D58FD44DD58FD441A206D58FD98FAD
:100500005CC11C4537F7F1FF1307D77FD4457D8FBA
:100510009C49D58F94458606D58FD98F1CC55C55CF
:10052000370710FF7D177D8FDC29FD1793F7F70F35
:10053000D207D98F5CD582801C4589C593E7170007
:100540001CC58280F99BEDBF1C4593E787001CC545
:10055000828008450D81058982801C4593E747000C
:100560001CC5828008450981058982801C4591C58A
:1005700037075000D98F1CC582803707B0FF7D1721
:10058000F98FD5BFA54763F7B7048D47138765FF7C
:100590003307F7020328C5009D47B397E70093C7C9
:1005A000F7FFB3F70701B396E600DD8E54C5994710
:1005B00063E3C70495477D163306F6025859FD4795
:1005C000B397C70093C7F7FFF98F3396C5005D8EC9
:1005D00050D982800D473387E502032805019D47E6
:1005E000B397E70093C7F7FFB3F70701B396E600A9
:1005F000DD8E14C96DBFB14763E2C702954765162A
:100600003306F6021859FD47B397C70093C7F7FFA3
:10061000F98F3396C5005D8E10D9828095474D16AF
:100620003306F6025855FD47B397C70093C7F7FF47
:10063000F98FB395C500DD8D4CD5828068454205A4
:100640004181828008416D8D3335A0008280584100
:10065000032805004C4537060140930706403E97A6
:100660009346F8FFB1C583250640F58D2320B6409B
:10067000D043F18ED4C31443B3E6060114C318412A
:1006800090479346F7FF758E90C7D047F18ED4C739
:10069000144541466399C6009447D98E94C7D44700
:1006A000558FD8C78280B6979443558F98C3828060
:1006B0001C43F58F1CC38280B70701401387074096
:1006C00083A70740584B698F09C77D8D3335A0003C
:1006D000828001458280B707014023AAA74082801B
:1006E0009C4513F7070113F8F70001C7D841336899
:1006F000E80037270240145B3707000F758F4DEB7A
:1007000085462388D180371701406315E5009A217B
:1007100035839AA18E2113F7F50F39C3184181460D
:10072000854E3D4F930F800293028004214E3396F5
:10073000DE00B3F8C5006311160393982600331347
:100740001F011343F3FF3377E300B318180133E7B6
:10075000E8006397F70750C98506E39AC6FD18C1FC
:100760001307F00F6375B70454412146854E3D4F82
:10077000930F800293028004414EB398CE0033F76A
:1007800015016392E8021317260001173313EF00D7
:100790001343F3FFB376D3003317E800D98E639584
:1007A000F703232A15010506E319C6FD54C182800B
:1007B00037170140E310E5F603C7018121DF81BF50
:1007C000E39C57F810C949BFE39F57FC2328150144
:1007D000D9BFB71701406316F50083C7018191C3E4
:1007E000B58108456D8D3335A0008280B717014073
:1007F0006316F50083C7018191C3B5810CC982805E
:10080000B71701406316F50083C7018191C3B58115
:100810004CC98280B71701406316F50083C7018178
:1008200091C3B58119C20CC982804CC9828013F76B
:10083000C50F93F73500B7050140BA9594458A076F
:100840003D473317F7001347F7FF758F98C5984555
:100850003315F500598D88C5828023AAA180828036
:1008600003A74181854714216310F7021C31639C63
:10087000E7023C21960793E707F837E700E093F794
:10088000F70F36972300F740054793D756003317E5
:10089000D700544189CE938707048A07B7E600E062
:1008A000B69798C38280EDF33C219607F9B79387FA
:1008B0000706E5B799C5371702401C4F5D8D08CF75
:1008C0008280B7170240984F1345F5FF798D88CF86
:1008D0008280EFF2FF85411185451145E13FC14717
:1008E0003EC637150140A1477C824C008D47130559
:1008F00005803EC4F53341016FF0DF85EFF25F8381
:1009000037150140A14513050580CD353726000078
:100910001306065C9D450D45B1246FF0BF83EFF2D1
:100920003F8137150140A14513050580D13D37268C
:1009300000001306C65B9D450D452D246FF09F8179
:10094000EFF20FFF411185452145AD37C1473EC646
:100950008D47371401403EC48567938707C04C001C
:10096000130504C07C82AD3B130504C00546930506
:1009700000404D358565054693850580130504C007
:10098000513D41016FF00FFDEFF28FFA3714014036
:10099000856493850480130504C00546A53D1305B1
:1009A00004C0054693050040B535938504801305C2
:1009B00004C001468535014693050040130504C077
:1009C000913D6FF02FF9EFF2AFF6371401408564D7
:1009D00093850480130504C001462D3D130504C012
:1009E0000546930500403D35054693850480130573
:1009F00004C00D356FF00FF6EFF2EFF18569B71413
:100A00000140AA8A0144130B0008938909801389C5
:100A100004C0214A33568B40337656013336C0002A
:100A2000CE854A85C53B0945EF00901605469305DE
:100A300000404A85C5330945EF00901501469305EE
:100A400000404A85C13B09450504EF007014E313DB
:100A500044FD054693050040138504C0653B0945E8
:100A6000EF001013014693050040138504C05D3369
:100A70000945EF00F0116FF04FEDEFF26FEB2A84B4
:100A80002137130580078D3F0145BD372285AD37DE
:100A90001D3F6FF02FECEFF2AFE92A84F535130517
:100AA0008007993F13050004813F2285B137213F1C
:100AB0006FF04FEAEFF2CFE71365050B2E84753F19
:100AC00013554400136505014D3F1375F400753748
:100AD0006FF04FE8EFF2CFE50144214981452285CF
:100AE000D13F930400080145FD147537EDFC050462
:100AF0001374F40FE31424FF6FF0CFE5EFF2AFE1CE
:100B00009304F5079389F50186048E0932890964F7
:100B100093F4F40F93F9F90F930A445CCE8526857C
:100B20001209493FCA9A214A1304445C03C50AE0EA
:100B30007D1A137AFA0F8537850AE3190AFE1385A1
:100B40001400CE851375F50F130909E0A5374A94F3
:100B5000A1440824FD1493F4F40F353F0504F5F87F
:100B60006FF0AFDEEFF22FDB2A89AE89B284014449
:100B7000B38784000386070019E26FF00FDDB30529
:100B8000340193F5F50F4A8505048D3F1374F40F76
:100B9000C5B7EFF24FD82A89B289338AB600FD5A19
:100BA000A94499E26FF06FDAB305DA40FD1693F5C8
:100BB000F50F05463684FD16639C560133D6C902EF
:100BC0004A8533769602130606030D3FA286D1BFEF
:100BD00033069602CDB7EFF2AFD59D331305E00A89
:100BE000693D1305500D513D130500087935130576
:100BF000800A61351305F00349351305300DB53D05
:100C00000145A53D130500048D3D1305100AB535BA
:100C10001305800C9D351305A00D85354945B13D63
:100C200013051008993D1305F00C813D1305900D37
:100C3000A9351305100F91351305B00D3D3D130572
:100C40000003253D1305400A0D3D1305600A3535A7
:100C50001305D0081D3551450D351305F00A313DFA
:100C6000953D6FF02FCFEFF2AFCC7971854513052D
:100C7000402089313715014005448D474C0013054C
:100C8000058060823EC402C6EFF09FA52302810268
:100C900037240140B7070E000C08130504403ECE70
:100CA00002CC02CA02D002C8EFF0BF8395460546C7
:100CB000814513050440EFF0FF8C85451305044082
:100CC000EFF09F8713050440EFF01F889304044062
:100CD0002685EFF01F886DFD130504403724014081
:100CE000EFF0BF87130404402285EFF0BF876DFD4E
:100CF00045616FF02FC6EFF2AFC337250140854540
:100D00001305054037240140EFF05F86930404404B
:100D100089452685EFF01F9365DD13050440EFF04C
:100D2000FF916FF02FC3EFF2AFC0F137EF10605AB1
:100D3000B737000083A547BBEF00F03EB737000090
:100D400083A587BBEF0010726FF0CFC0EFF24FBEEC
:100D5000D93FB727000083A58757EF00B070EF1089
:100D6000E051420541816FF0EFBEEFF26FBC4111DF
:100D700085451145EFF01FB4C147371401403EC609
:100D800099477C824C008D47130504803EC4EFF0E8
:100D90003F95130504808945EFF05FA59145130544
:100DA0000480EFF0BFA441016FF0CFBAEFF24FB86B
:100DB00037140140130504809145EFF07FA4894565
:100DC00013050480EFF09FA26FF0CFB8EFF24FB69B
:100DD00037140140130504808945EFF07FA2914547
:100DE00013050480EFF09FA06FF0CFB6EFF24FB481
:100DF000797185457145EFF0FFAB85450545EFF00D
:100E00007FAB37140140930780043ECE85448D4765
:100E10004C08130504C0E4823ECCEFF07F8C9307AE
:100E200000024C0813050480FC82EFF07F8BE94739
:100E30004C08130504C0FC82EFF09F8A89674C08B8
:100E400037150140FC82EFF0BF8981450545EFF081
:100E50001F9E95450145EFF09F9D0544B147081041
:100E600022D022D63ED402D2EFF06FFE93070002CA
:100E700008103ED0EFF0AFFD0545EFF01F9E930741
:100E800060117C866800894722C85C87EFF05F9D0F
:100E90009307700268005C864487EFF07F9C456191
:100EA0006FF04FAB39712AD6294506DE16DC1ADA07
:100EB0001ED82ED432D236D03ACE3ECC42CA46C804
:100EC00072C676C47AC27EC0FD290545EFF0CFFE1A
:100ED00019C99387818198239336170094A315EB42
:100EE000F135A38C01800545EFF0EFFEF250E252A0
:100EF0005253C2533255A255125682567247E24798
:100F00005248C248324EA24E124F824F21617300A6
:100F100020306D3DC9BF39712AD6294506DE16DC61
:100F20001ADA1ED82ED432D236D03ACE3ECC42CAAD
:100F300046C872C676C47AC27EC07121130500020B
:100F4000EFF08FF719CD938791819823933617008F
:100F500094A31DEBA53D238C018013050002EFF047
:100F60008FF7F250E2525253C2533255A2551256E5
:100F700082567247E2475248C248324EA24E124F42
:100F8000824F2161730020301535C1BFEFF24F9AB7
:100F900003C7818185476316F708371401408945E7
:100FA000130504C0EFF0FF821DED2945292989456D
:100FB000130504C0EFF0FF811DE5138741801E2358
:100FC00089669386067193874706C207C18363E7E4
:100FD000F60E1EA337140140130404C08945228570
:100FE000EFF02FFF65DD896537150140EFF06FFEEB
:100FF0000DE92945C92E896537150140EFF06FFDD0
:101000000DE183D741801387418089C79387C7F952
:10101000C207C1831EA3896537150140EFF06FFB3E
:101020007DD903C7918185476318F70837140140BC
:10103000A145130504C0EFF0CFF90DED2945612658
:10104000A145130504C0EFF0CFF80DE513876180CB
:101050001C2393064006850793F7F70F63E2F60615
:101060001CA337140140130404C0A1452285EFF0EE
:101070004FF665DD37140140C145130504C0EFF09C
:101080004FF51DE929458126C145130504C0EFF040
:101090004FF41DE183C761801387618081C7FD170D
:1010A00093F7F70F371401401CA3130404C0C14584
:1010B0002285EFF00FF265DD6FF0CF8916A319BF1F
:1010C00014A345B7EFF2CF864111930700087C8245
:1010D00037150140C1473EC64C008D4713050580BA
:1010E0003EC4EFF0EFDF41016FF0CF86EFF24F84A7
:1010F000411193070008371501407C824C0093078B
:101100008004130505803EC6EFF08FDD41016FF0CE
:101110006F84EFF2EF817D373714014093050008AB
:1011200013050480EFF0CFED1305E02E9524930511
:10113000000813050480EFF06FEB5145912C6FF020
:101140006F81EFE2FFFEB71401404D3701449384F5
:1011500004805149930500082685EFF08FE701CD03
:101160006315240105456FE0FFFE0504294513744E
:10117000F40F392CC5B7D147E306F4FEB71401408C
:101180000144938404805149930500082685EFF0BB
:101190004FE409E9E30824FD050429451374F40F1D
:1011A000C52ADDB71305C4FE133515006DBFEFE288
:1011B0003FF8093F371401409305000813050480E8
:1011C000EFF00FE40100010093050008130504800F
:1011D000EFF0CFE1213F0100010093050008130566
:1011E0000480EFF00FDF2A841305200355223335E6
:1011F00080006FE03FF6EFE2BFF3A1440144453FBA
:101200001E050580FD14498C93F4F40F1374F40F3C
:10121000FDF422856FE01FF4EFE29FF137140140E7
:101220002A89A14445351304048093771900930556
:1012300000081359190022859DC3EFF06FDC0100EF
:101240000100930500082285EFF04FDA1305C00373
:101250008122FD1493F4F40FE9F86FE0BFEFEFF093
:101260002FDA1305C0032D22930500082285EFF025
:10127000EFD701000100F1BFEFE29FEB593DD135FF
:101280001305C00C513F1305400479376FE09FEC04
:10129000EFE21FEA85452145EFF0CFE19D3D553551
:1012A0006FE05FEBEFE2DFE8C13FA535593D130585
:1012B000C00C9D371305E00B8537353F2A84253F49
:1012C0002205229542054181C167137705809387E6
:1012D00007806312F7023305A04042054181D92BF4
:1012E000B737000003A607BC83A647BC012AEF104E
:1012F000200B6FE03FE67D2BB737000003A687BCCD
:1013000083A6C7BCE5B7EFE2BFE2411185451145B1
:10131000EFF04FDAC1473EC637150140930700048E
:101320007C824C008D47130505803EC4EFF04FBB17
:1013300041016FE03FE2EFE2BFDF37150140930567
:10134000000413050580EFF0AFCB6FE0BFE0EFE2E4
:101350003FDE371501409305000413050580EFF0CB
:10136000EFC86FE03FDFB707002083A707013717FB
:101370007A0013070720B3D7E70293F7F70F238EFE
:10138000F1801307803EB387E702239DF1808280BE
:10139000B7F700E0D8438146799BD8C303C7C18122
:1013A0003306A70290CBD4CB98431367070198C3A9
:1013B00098431367170298C3D843058B75DF98438A
:1013C000799B98C38280B7F700E0D8438146799B28
:1013D000D8C303D7A1813306A70290CBD4CB9843BF
:1013E0001367070198C398431367170298C3D8433C
:1013F000058B75DF9843799B98C3828039714AD8F1
:1014000013D945014ED652D456D29399C50006DE63
:1014100022DC26DA5AD05ECE1379F97F2A8A93D954
:10142000C90093DAF501630D090E9307F07F630697
:10143000F9181354D5018E09B369340137048000BB
:1014400033E4890093143500130919C08149814B95
:1014500013D74601139AC6001377F77FB285135A44
:10146000CA0013DBF601630B07109307F07F6303D9
:10147000F7049357D6010E0A33EA4701130717C042
:10148000B7078000B367FA00931536003A99814890
:1014900033C76A01BD463A851308190063E8361759
:1014A00017160000130606738A09B29983A609006D
:1014B000B2968286B367CA001309F97F639907124F
:1014C00093E9290081458948E1B701479307F07FF7
:1014D0003704080081443204D20731807E075D8CD6
:1014E000598CA285F250625426854259D254B25981
:1014F000225A925A025BF24B216182805A853E84C5
:10150000AE84C68B8947638DFB0E8D47E38FFBFA54
:1015100085472A87639EFB3881470144814465BF24
:1015200033E4A90061C036C632C4638C092A4E85F3
:10153000EF00B07D2246B246AA87130755FF7544D7
:10154000938487FF198CB399990033548A003364CC
:101550003401B3149A0013D746011309D0C0139A6B
:10156000C6001377F77F3309F9408149814BB28573
:10157000135ACA0013DBF601E31907EEB367CA007A
:10158000B1C7630F0A22528532C4EF001078224699
:101590002A87930655FFF547930587FF958F331AE2
:1015A000BA00B357F600B3E74701B315B6003309E5
:1015B000E9401309D9C08148E1BD33E4A90001EC39
:1015C000A14981441309F07F894B59B593E919006A
:1015D0008145854875BD4E84AA84B1491309F07FC1
:1015E0008D4BBDB5914981440149854B95B593E932
:1015F0003900D2878D4869BD89475685E397FBF04E
:101600002A879307F07F01448144F1B5C16E1386A8
:10161000FEFF93D6040113DE0501F18CF18D3386B4
:1016200095023383B6029358060133059E021A953C
:10163000AA98B382C60363F36800F692C16F13835E
:10164000FFFF33F5670093D30701B3F76800C207C4
:10165000337366003E933306950293D80801B3872F
:10166000A602135F0601B3849302BE94FA94B38E6C
:10167000760263F3F400FE9E416A9307FAFF935FDC
:101680000401B376F400B3F9F4007D8EC180338495
:10169000D502C209338FD401B299CE98B307DE02C6
:1016A000935E0401B385BF02AE97BE9E330EFE0368
:1016B00063F3BE00529EC1679385F7FF33F6BE0009
:1016C0006D8C4206229693DE0E01B305D502769EFE
:1016D0003385AF0213D40501B386D302AA96A2962E
:1016E000B38FF30363F3A600BE9F41657D15B3F787
:1016F000A600C2076D8DAA97B3855800B3B935010E
:10170000FA97B2953384370133B6C500B30EC401DE
:101710003385CE0033343401B3B7E701C18F33BE14
:10172000CE0113D406013336C5003E943366CE0095
:101730009394950032947E94B3E464002604935607
:101740007501B3349000DD8193179500CD8C558CD5
:10175000DD8C9317740063DB070093D71400858832
:101760009316F401DD8CD58C058042899307F93FEF
:101770006359F00893F6740081CE93F6F400114695
:101780006388C60093864400B3B496002694B6845A
:101790009316740063D80600B70700FFFD177D8C11
:1017A000930709409306E07F63CFF60E93D634008B
:1017B0009314D4012604D58C318093F7F77F21BB95
:1017C000328532C4EF00705493065501F147130778
:1017D00005022246E3D1D7DC6115B317A600814587
:1017E000F9B3EF00905213075501F1459307050235
:1017F0002246B246E3D5E5D461153314AA008144EC
:1018000099BB85469D8EB1E71309E941B397240141
:10181000B3D4D40033192401B337F000B364990072
:10182000DD8C93F77400B356D40081CF93F7F400A6
:1018300011466388C70093874400B3B49700A69607
:10184000BE849397860063D807048547014481448A
:1018500059B113068003E341D6CC7D46E356D6FA50
:101860000556B307F640930500023356F40063872C
:10187000B6001309E943B3172401DD8CB33490009B
:10188000D18C93F67400014499CA93F7F400114681
:101890008146E392C7FA139496003180F6068D8054
:1018A000D58C81470DB99307F07F0144814425B160
:1018B00042896DBD411106C622C426C20DCD935783
:1018C000F541B3C4A7009D8C2A842685EF00F04320
:1018D0009306E041898EA9477D8093F6F67F63CD1C
:1018E000A7022D47098FB3D7E4005505B207B3947B
:1018F000A400B18329A00144814681478144B207F5
:10190000D206B1837E04D58FC18FB2402244268592
:10191000BE859244410182805515B397A400B20759
:10192000B1838144E9BF3971935775014AD856D2C2
:101930005ECE931A95001359F50106DE22DC26DAF5
:101940004ED652D45AD093F7F70F93DA9A00CA8B37
:10195000638207121307F00F6384E7128E0A3707BA
:101960000004B3EAEA00138A17F80144014B93D745
:1019700075019394950093F7F70FA58093D9F5011E
:10198000FDC71307F00F6387E7028E04938717F8EC
:1019900037070004D98C330AFA408146558C171753
:1019A0000000130727270A043A941C4033493901E1
:1019B000BA978287130A1AF0F9E88946558C1717E7
:1019C0000000130727290A043A941C4033493901BF
:1019D000BA97828701491307F00FB70740001395A4
:1019E0009700F25062549317770125817E095D8D2F
:1019F00033652501D2544259B259225A925A025B98
:101A0000F24B216182801307F00F8147C9BFA68A7C
:101A1000CE8B368B8947630BFB1A8D47E30CFBFAA1
:101A20008547630AFB0A1307FA0713F91B0063577C
:101A3000E01293F77A0099C793F7FA00914663830F
:101A4000D700910A93974A0063D90700B70700F8B7
:101A5000FD17B3FAFA0013070A089307E00FE3C46F
:101A6000E7FA93976A00A5831377F70F8DBFB9E460
:101A70008546A9B763940A021144014A054BC5BDC6
:101A800063990A002144130AF00F094BCDB58D4626
:101A900031B73144130AF00F0D4BD1BD56852EC618
:101AA000EF00B0269307B5FFB39AFA009307A0F8AA
:101AB000338AA7400144014BB24555BD2685EF004E
:101AC000D0241307B5FFB307AA00B394E400138A28
:101AD00067078146E1B513F91B000147814701B74C
:101AE0004166139554007D1693570501698E63FA7C
:101AF0009A0AB3D5FA027D1AD68601473388C50201
:101B0000B3F6F602C206558F637B07012A979386C8
:101B1000F5FF6368A70A6376070BF9152A97330761
:101B20000741B356F7023377F702B38AC602931719
:101B3000070163FB5701AA971387F6FF63E1A70824
:101B400063FF5707F916AA97C205B38A5741D58D87
:101B5000B33A5001B3EA5501CA8BF1B58546998E67
:101B600011C76D4601478147E34BD6E6130AEA09E0
:101B7000339A4A01B3D7DA00B33A4001B3E75701C9
:101B800013F7770019C713F7F70091466303D700DF
:101B9000910713975700634807029A07A5830147E7
:101BA0003DBD93D61A00B3D5F6021397FA014183CF
:101BB0003388C502B1B7CE8B368B814AA1BDBA86B8
:101BC00061B7B685A9BF0547814711BD13F91B0051
:101BD0001307F00F814721B593567501B7078000B1
:101BE000FD1713D6750193F6F60F1308F00FB3F82F
:101BF000A7001357F501ED8F1376F60FFD8163876C
:101C000006036309060185EA11EA89EB0145639B36
:101C1000080082800945F5FFE5DA31A8638C0802E7
:101C20006300B704054575D77D55828009456398E3
:101C300008026304D60211E2F5D7E315B7FEE343C9
:101C4000D6FE63C7C600E3EF17FD0145E3F3F8FCDA
:101C500019E3D9BFF1D905458280E5D3828082801E
:101C60008146C5B7797122D4135475014ECE52CC3A
:101C70009319950006D626D24AD056CA5AC813746C
:101C8000F40F93D99900135AF50169C49307F00F23
:101C90006308F40E9397390037070004B3E9E700AF
:101CA000130414F88144014B13D77501939A9500DE
:101CB0001377F70F93DA9A0013D9F50145CF9307FD
:101CC000F00F630CF7028E0A130717F8B70700042A
:101CD000B3EAFA003A94014633452A01BD47AA8681
:101CE0009305140063E0971017170000130787FA95
:101CF0008A04BA949C40BA9782871304F40F6396BF
:101D00000A0C93E424000946C1BF01451307F00FF4
:101D1000B7074000B2502254A6075E07A5837E0590
:101D2000D98F92540259F249624AD24A424B5D8D90
:101D300045618280CA86D689328B8947630FFB084A
:101D40008D47E304FBFC854736856310FB1A01478A
:101D50008147C9B7639D090413D77501939A95000C
:101D60001377F70F91440144054B93DA9A0013D986
:101D7000F50131F7639D0A0093E414000546A9BFFD
:101D800063920902A1441304F00F094B31BF568539
:101D9000AD2F9307B5FF098CB39AFA001304A4F88A
:101DA00001461DBFB1441304F00F0D4BF5BD4E8528
:101DB0002EC6A12F9307B5FF1304A0F8B399F9001D
:101DC000098C8144014BB245C5B593E434000D46FE
:101DD00021B78947D286E315FBF636851307F00F46
:101DE00081470DBF41639306F3FF13D6090193D8D2
:101DF0000A01B3F7D900B3FADA0033885703B3897D
:101E0000F80213570801B30A5603D6994E973306C2
:101E10001603637357011A96C167FD17B376F7006F
:101E20003378F800C206C29693996600935707016B
:101E3000B3393001E982B2979A07B3E6D900B3E922
:101E4000D7009397490063D9070013D7190093F778
:101E50001900B369F7002E841307F4076350E004F8
:101E600093F7790099C793F7F90091466383D700F8
:101E700091099397490063D90700B70700F8FD1748
:101E8000B3F9F900130704089307E00F63CBE704E5
:101E900093976900A5831377F70FADBD8547B38688
:101EA000E74011C76D4601478147E345D6E6130772
:101EB000E4093397E9003337E000B3D7D900D98F6D
:101EC00013F7770019C713F7F70091466303D7009C
:101ED000910713975700634C07009A07A5830147A2
:101EE00015BD1307F00F814735B52E84B5B70547EB
:101EF00081470DB53707800041117D179356750155
:101F000013D87501B377A70093F6F60F935EF5012A
:101F10003376B70026C24AC01378F80F06C622C42B
:101F20001303F00F3E8E3689F684139F3700FD8130
:101F300013153600B38806416302681093C5150077
:101F4000638CBE106354100D631008106304051EEB
:101F5000FD18B307AF40638608029307F00F63884C
:101F6000F616ED4763C71729130700023307174119
:101F70003317E500B35715013337E000D98FB307A6
:101F8000FF40139757006351071A370400047D146C
:101F90007D8C22859D2B6D15B317A400634E251BE8
:101FA000330525411304150013070002018F3397F1
:101FB000E7003337E000B3D78700D98F014913F723
:101FC000770019C713F7F70091466303D70091070D
:101FD00013975700635E0714930619001307F00F59
:101FE00093FE14006386E6169A07A58393F6F60F10
:101FF000A607B240224413D59700DE069397FE0150
:10200000558D924402495D8D410182806392080A98
:10201000138716001377E70F631B071463940622D8
:1020200063020F2071D5B307AF4013975700635574
:102030000722B307E5410149AE8451B7E30005F03B
:10204000638ABE0AE35410FD9307F00F6381F6081C
:10205000B70700045D8D31B7635E1009630108089E
:102060009307F00F6385F606B70700045D8DED4713
:1020700063C0171F13070002330717413317E5002A
:10208000B35715013337E000D98FFA9713975700EC
:10209000635C070805091307F00F630BE90AB7062D
:1020A000007E13D71700FD16858B758FD98F01BF62
:1020B0003307D84063950610630D0F147D17630333
:1020C000071A9307F00F6314F810AE84328E630F73
:1020D0000E06814E9306F00FB707400011BF39C9B5
:1020E000FD18B307AF00E38308FA9307F00FE390FE
:1020F000F6F8F1BF63990808138916001377E90F02
:1021000063160712639B061063030F16E30205EEC6
:10211000B307AF001397570001496357070037070C
:1021200000FC7D17F98F054913F77700E31C07E8DA
:1021300013DE37009307F00FE30BF9F893179E00B7
:10214000A5839376F90F93FE14005DB593FE1400FA
:102150009306F00F814769BD370700FC7D17F98FA3
:1021600013F777003309A940E31E07E4D1B733041E
:10217000AF409317540063C3070CE31C04E0814E87
:1021800081468147B5B53307D840B5C69307F00FF0
:10219000E30EF8F2B7070004336FFF00ED4763CD9D
:1021A000E70C93070002998FB317FF003357EF0036
:1021B000B337F0005D8FB307A7004289C1BD930715
:1021C000F00FE304F8F0B7070004336FFF00ED47AA
:1021D00063C2E70893070002998FB317FF003357D4
:1021E000EF00B337F000D98FB307F5404289AE84D2
:1021F00049BB854769B3630E0F067D17B307AF0070
:102200004289E30507E89307F00FE319F8F8328EE7
:102210007DBD328E4289AE8431BFE3090FEAE30807
:1022200005EA45BD0DCDAE8EB287D9B39307F00F49
:10223000E300F9F2B307AF008583FDB53304E54150
:10224000AE8481BBE31D0FFCE30505E8AE84BDBD94
:10225000854725BD854749BF0149E39707EC814E76
:10226000814779B3B307E5414289AE8419BBB28790
:1022700041B3328E42897DBD054735BF1357750185
:10228000370680009307F6FF1377F70F9305E007F3
:10229000B3F6A7009357F501014563F4E50099C330
:1022A000828082809307E0097D55E3EBE7FE93058A
:1022B0005009B3E7C60063D7E5001307A7F63395C7
:1022C000E7008280130560093307E54033D5E70056
:1022D0008280411106C622C415CD2A843D2493076D
:1022E000E0093387A7409307600963C0E704A1466C
:1022F0009377F70F63D5A60061153314A400260465
:102300002580260413559400B2402244DE075D8DDB
:10231000410182800144260413559400B2402244B6
:102320008147DE075D8D410182809307900963DD5F
:10233000E7009307B5019546B317F400898EB337CC
:10234000F0003354D4005D8C954763D6A700930703
:10235000B5FF3314F400B70600FCFD169377740044
:102360003376D40085C39377F4009145638CB7002E
:1023700011069317560063D707009307F009758E6F
:102380003387A74013146600258026041355940054
:10239000B24022449377F70FDE075D8D41018280C2
:1023A00093D645019397C50093F6F67FB1831386C4
:1023B00016008E071357D5011376E67FFD815D8FDA
:1023C0009318350035CE138806C89307E00F63DDF8
:1023D00007018147139597009306F00FDE062581CC
:1023E000FE05558D4D8D82806355000B931765005A
:1023F0000E07B337F000D98F93D8D801B3E7170190
:1024000013F777006301071013F7F7009146630392
:10241000D7009107370700047D8F75C71307180091
:102420001306F00F9376F70FE305C7FA9A07A58313
:1024300013959700DE062581FE05558D4D8D828012
:10244000B367170199EE85CF95479A07A583139532
:10245000970093F6F60FDE062581FE05558D4D8D0E
:102460008280A5DBB7074000139597009306F00F15
:10247000DE0681452581FE05558D4D8D8280814783
:10248000139597008146DE062581FE05558D4D8DFD
:102490008280A5576348F804F94737068000B38760
:1024A00007417D45598E6351F5047957330707413C
:1024B000130500023357E6006388A700938626CAF7
:1024C000B316D600B3E8D800B3371001D98F13F78D
:1024D0007700014815FB139757008546E34807F43A
:1024E0008146A5B781468DB7938626C83397D80015
:1024F0003337E000B316D600B3D8F800B367D7007F
:10250000B3E7F800E9B7C28689B7C167637CF50213
:102510009307F00F1307000263EBA7009707000073
:102520009387477BAA9788233305A7408280218120
:10253000970700009387077AAA9788236147330596
:10254000A7408280B7070001636DF500618197079E
:10255000000093872778AA97882321473305A7404F
:1025600082804181970700009387C776AA978823C6
:1025700041473305A740828000007A44536D6F675E
:102580003A2020202070706D00000000543A202076
:1025900020202E2020205E430000000052454C41A8
:1025A000593A0000533A202020202000543A20209D
:1025B000202000002D00000020000000204E4F00D1
:1025C000204F4B0000000000000000000000000051
:1025D00000000000000000F80000000000000033D0
:1025E0003000000000100C06100C06000000000077
:1025F0000000000040C07840C0784000043F040460
:102600003F040400007088FC08300000001820FF20
:10261000211E0000F008F000E018000000211C035B
:102620001E211E0000F00888700000001E212324D7
:102630001927211010160E000000000000000000F5
:1026400000000000000000E0180402000000000785
:102650001820400000020418E0000000004020188C
:1026600007000000404080F0804040000202010F5F
:1026700001020200000000F0000000000101011F43
:1026800001010100000000000000000080B07000A7
:102690000000000000000000000000000001010137
:1026A00001010101000000000000000000303000C6
:1026B00000000000000000008060180400601806A0
:1026C0000100000000E010080810E000000F1020DA
:1026D00020100F00001010F8000000000020203F24
:1026E00020200000007008080888700000302824AE
:1026F000222130000030088888483000001820204F
:1027000020110E000000C02010F800000007042473
:10271000243F240000F808888808080000192120B8
:1027200020110E0000E0108888180000000F112012
:1027300020110E0000380808C83808000000003FCB
:10274000000000000070880808887000001C22212A
:1027500021221C0000E010080810E00000003122D7
:1027600022110F00000000C0C00000000000003077
:1027700030000000000000800000000000008060C9
:10278000000000000000804020100800000102044A
:102790000810200040404040404040000404040431
:1027A00004040400000810204080000000201008ED
:1027B00004020100007048080808F0000000003022
:1027C00036010000C030C828E810E00007182724B0
:1027D00023140B000000C038E0000000203C23025E
:1027E0000227382008F8888888700000203F2020C1
:1027F00020110E00C03008080808380007182020F3
:102800002010080008F808080810E000203F2020E9
:1028100020100F0008F88888E8081000203F2020CA
:102820002320180008F88888E8081000203F2000BE
:1028300003000000C03008080838000007182020F6
:10284000221E020008F808000008F808203F2101B5
:1028500001213F20000808F8080800000020203F60
:102860002020000000000808F8080800C0808080D0
:102870007F00000008F888C028180800203F2001C9
:102880002638200008F8080000000000203F202023
:102890002020300008F8F800F8F80800203F003F3A
:1028A000003F200008F830C00008F808203F200052
:1028B00007183F00E01008080810E0000F10202063
:1028C00020100F0008F808080808F000203F210138
:1028D00001010000E01008080810E0000F1824248F
:1028E00038504F0008F8888888887000203F200002
:1028F000030C3020007088080808380000382021B8
:1029000021221C00180808F8080818000000203FC1
:102910002000000008F808000008F808001F202028
:1029200020201F000878880000C8380800000738F9
:102930000E010000F80800F80008F800033C07004A
:10294000073C0300081868808068180820302C03B2
:10295000032C30200838C800C83808000000203F89
:102960002000000010080808C83808002038262178
:1029700020201800000000FE020202000000007F7C
:1029800040404000000C30C000000000000000018A
:102990000638C00000020202FE0000000040404075
:1029A0007F0000000000040202020400000000009A
:1029B0000000000000000000000000008080808017
:1029C00080808080000202040000000000000000FF
:1029D0000000000000008080808000000019242298
:1029E00022223F2008F8008080000000003F1120D4
:1029F00020110E000000008080800000000E1120D9
:102A000020201100000000808088F800000E1120B6
:102A100020103F200000808080800000001F2222C4
:102A200022221300008080F0888888180020203F30
:102A3000202000000000808080808000006B949443
:102A40009493600008F8008080800000203F2100FF
:102A500000203F2000809898000000000020203FC8
:102A600020200000000000809898000000C08080B6
:102A7000807F000008F8000080808000203F240252
:102A80002D302000000808F8000000000020203F42
:102A9000202000008080808080808000203F2000F7
:102AA0003F20003F8080008080800000203F210088
:102AB00000203F200000808080800000001F202038
:102AC00020201F00808000808000000080FFA12067
:102AD00020110E000000008080808000000E112078
:102AE00020A0FF80808080008080800020203F2107
:102AF00020000100000080808080800000332424BA
:102B000024241900008080E0808000000000001F65
:102B1000202000008080000000808000001F202016
:102B200020103F20808080000080808000010E30D7
:102B30000806010080800080008080800F300C0338
:102B40000C300F0000808000808080000020312E3B
:102B50000E312000808080000080808080818E7017
:102B60001806010000808080808080000021302CC9
:102B70002221300000000000807C020200000000E2
:102B8000003F404000000000FF0000000000000087
:102B9000FF0000000002027C800000000040403F77
:102BA0000000000000060101020204040000000011
:102BB0000000000000F07F45B81E554000000000F6
:102BC000000000000000B0BF000000000000B03FA7
:102BD0003CEAFFFF2EE9FFFF2EE9FFFF2CE9FFFF94
:102BE00034E9FFFF34E9FFFFFAE8FFFF2CE9FFFFBC
:102BF00034E9FFFFFAE8FFFF34E9FFFF2CE9FFFFAC
:102C000028EAFFFF28EAFFFF28EAFFFFFAE8FFFFB4
:102C1000D0EEFFFFF6EDFFFFCAEEFFFFFEEDFFFF78
:102C2000CAEEFFFFC4EDFFFFCAEEFFFFFEEDFFFFA0
:102C3000F6EDFFFFF6EDFFFFC4EDFFFFFEEDFFFF3A
:102C400004EEFFFF04EEFFFF04EEFFFFC4EDFFFF05
:102C5000B6EDFFFFB6EDFFFF8AEEFFFF66EFFFFF69
:102C60008AEEFFFF84EDFFFF8AEEFFFF66EFFFFFB6
:102C7000B6EDFFFFB6EDFFFF84EDFFFF66EFFFFF50
:102C8000C4EDFFFFC4EDFFFFC4EDFFFF84EDFFFFC8
:102C900054F1FFFFA6F0FFFFA6F0FFFFA4F0FFFF37
:102CA000AAF0FFFFAAF0FFFF7AF0FFFFA4F0FFFFFA
:102CB000AAF0FFFF7AF0FFFFAAF0FFFFA4F0FFFFEA
:102CC00042F1FFFF42F1FFFF42F1FFFF7AF0FFFF09
:102CD00000010202030303030404040404040404C3
:102CE0000505050505050505050505050505050594
:102CF0000606060606060606060606060606060674
:102D00000606060606060606060606060606060663
:102D10000707070707070707070707070707070743
:102D20000707070707070707070707070707070733
:102D30000707070707070707070707070707070723
:102D40000707070707070707070707070707070713
:102D500008080808080808080808080808080808F3
:102D600008080808080808080808080808080808E3
:102D700008080808080808080808080808080808D3
:102D800008080808080808080808080808080808C3
:102D900008080808080808080808080808080808B3
:102DA00008080808080808080808080808080808A3
:102DB0000808080808080808080808080808080893
:102DC0000808080808080808080808080808080883
:102DD00000000000000000000102030406070809CB
:082DE00000D8B805DC0528004D
:00000001FF
