:030000000203F305
:0C03F300787FE4F6D8FD75813402043AEE
:1005B9003F065B4F666D7D077F6F777C395E79718A
:1005C9000840000F000E0D0102030A0405060B077F
:0305D90008090C02
:1005DC00040800000000040C0000000004150000DA
:1005EC000000041100000000011900011A000110A4
:0105FC0000FE
:1005FE00E4FDFCC3ED9FEC9E5015E4FBFA0BBB0033
:0F060E00010AEB64724A70F50DBD00010C80E427
:01061D0022BA
:10050400E4F9E9B40800504D900513F82828730263
:10051400052B02052F02053302053702053B0205B0
:100524004302054B020553D2A4800ED2A48012D2FA
:10053400A48016D2A4801AC2A4D2A3D2A28016C2C6
:10054400A4D2A3C2A2800EC2A4C2A3D2A28006C215
:10055400A4C2A3C2A2741B29F8E69005B993F5803E
:100564007F017E001205FEE4F58009E964087092BB
:010574002264
:10047F007525FFE4F9C3740399FFF874100880021F
:10048F00C333D8FCF4F590E590540F640F605D7F93
:10049F000A7E001205FEE590540FFF640F604DEFCA
:1004AF0024F5601024FE601114601324077012E409
:1004BF00F524800D752401800875240280037524AE
:1004CF0003C374039925E025E024CCF582E43405B9
:1004DF00F583E5822524F582E43583F583E493F5EE
:1004EF0025E590540FFFBF0FF8AF252209E96404EB
:0404FF0070837FFF88
:0105030022D5
:1002FC00851427851326851225851124752907E475
:10030C00F532F533F534E5106015E4F528741B254A
:10031C0028F876100528E528B408F2E4F51022AF89
:10032C0027AE26AD25AC24EC33500E7533011202EA
:10033C000A8F278E268D258C24AF27AE26AD25ACB3
:10034C0024EC4D4E4F7007F52A7532018050E4FFB6
:10035C00FEFDFCAB27AA26A925A824D3120218401F
:10036C003DE53294085037E47B0AFAF9F8AF27AE32
:10037C0026AD25AC24120575AF03742A2532F8A6D8
:10038C0007AF27AE26AD25AC24E47B0AFAF9F812A8
:10039C0005758F278E268D258C24053280B0E4F5CB
:1003AC0028741B2528F876100528E528B408F2E4F3
:1003BC00F528E528C39532501BE529C39408501045
:1003CC00742A2528F8E6FF741B2529F8A607152999
:1003DC00052880DEE533600EE529C39400400774E0
:0603EC001B2529F8761123
:0103F20022E8
:100003007F08781B7410F608DFFC7F0812047F8FCB
:1000130023E523F470030201B5E523D39409503D8E
:10002300E519C3940840030201B5E47F0AFEFDFC11
:10003300AB14AA13A912A8111201BBA804A905AAFB
:1000430006AB07E4FCFDFEEB2523F514EE3AF513AE
:10005300ED39F512EC38F5110519020158E523B411
:100063000F2BE4F50BF50AF509F508F50FF50EF579
:100073000DF50CF518F517F516F515F514F513F53B
:1000830012F511F51AF519751001020158E52364EB
:100093000E600302015DE51A70030201B585140FBA
:1000A30085130E85120D85110C24FE602714603F05
:1000B3001460512403600302013BE50B250FF5187F
:1000C300E50A350EF517E509350DF516E508350C86
:1000D300F5158064C3E50B950FF518E50A950EF544
:1000E30017E509950DF516E508950CF5158049AF4B
:1000F3000FAE0EAD0DAC0CAB0BAA0AA909A80812E2
:1001030001BB8021AF0FAE0EAD0DAC0CEC4D4E4FCD
:10011300601DAB0FAA0EA90DA80CAF0BAE0AAD095B
:10012300AC081205758F188E178D168C158009E48F
:10013300F518F517F516F515851814851713851693
:1001430012851511E4F51A85180B85170A8516090A
:10015300851508F5191202FC8058E523C3940A405B
:1001630051E523D3940D504AE51A700C85140B8581
:10017300130A851209851108E523B40D05751A01C3
:10018300801CE523B40A05751A028012E523B40B1B
:1001930005751A038008E523B40C03751A04E4F506
:1001A30014F513F512F511F5197510011202FCE49B
:0801B300F51012050402000F13
:1003FF00020003E493A3F8E493A34003F68001F211
:10040F0008DFF48029E493A3F85407240CC8C333FE
:10041F00C4540F4420C8834004F456800146F6DFCD
:10042F00E4800B01020408102040809005DCE47E7C
:10043F00019360BCA3FF543F30E509541FFEE493C2
:10044F00A360010ECF54C025E060A840B8E493A389
:10045F00FAE493A3F8E493A3C8C582C8CAC583CAB4
:10046F00F0A3C8C582C8CAC583CADFE9DEE780BE6C
:0105FD0000FD
:1001BB00E88FF0A4CC8BF0A42CFCE98EF0A42CFCE3
:1001CB008AF0EDA42CFCEA8EF0A4CDA8F08BF0A461
:1001DB002DCC3825F0FDE98FF0A42CCD35F0FCEBC0
:1001EB008EF0A4FEA9F0EB8FF0A4CFC5F02ECD3985
:0F01FB00FEE43CFCEAA42DCE35F0FDE43CFC22F2
:10057500C2D5E830E70FB2D5E4C39BFBE49AFAE4B1
:1005850099F9E498F8EC30E717B2D51205AB1202E9
:100595006AE4C39BFBE49AFAE499F9E498F88003CA
:1005A50012026A30D50DE4C39FFFE49EFEE49DFD73
:0405B500E49CFC22A4
:0E020A00C3E49FFFE49EFEE49DFDE49CFC2205
:10021800EB9FF5F0EA9E42F0E99D42F0EC6480C85D
:0602280064809845F022FD
:10022E0075F008758200EF2FFFEE33FECD33CDCC87
:10023E0033CCC58233C5829BED9AEC99E58298400A
:10024E000CF582EE9BFEED9AFDEC99FC0FD5F0D6E7
:10025E00E4CEFBE4CDFAE4CCF9A88222B800C1B911
:10026E000059BA002DEC8BF084CFCECDFCE5F0CB4F
:10027E00F97818EF2FFFEE33FEED33FDEC33FCEB88
:10028E0033FB10D703994004EB99FB0FD8E5E4F943
:10029E00FA227818EF2FFFEE33FEED33FDEC33FC30
:1002AE00C933C910D7059BE99A4007EC9BFCE99A24
:1002BE00F90FD8E0E4C9FAE4CCFB2275F010EF2F69
:1002CE00FFEE33FEED33FDCC33CCC833C810D70769
:1002DE009BEC9AE899400AED9BFDEC9AFCE899F8A4
:0E02EE000FD5F0DAE4CDFBE4CCFAE4C8F92237
:00000001FF
