:03000000020016E5
:0C001600787FE4F6D8FD75810B02005DD8
:06000600010800010900E1
:040192007F147E0058
:10019600E4FDFCC3ED9FEC9E5015E4FBFA0BBB009F
:0F01A600010AEB64904A70F50DBD00010C80E476
:0101B5002227
:1001D600750A01B2A07FF47E01120196050AE50AAE
:0901E600D3941440EEE4F5082264
:1001B600750A01E4F5A07FF47E0112019675A0FF91
:1001C600120196050AE50AD3940A40E7E4F50922E6
:10016B0075A0FEE4F50AAF0AA8077401088002C364
:10017B0033D8FCF4F5A07FF47E01120196050AE555
:07018B000AC3940840E022C2
:10014000E4F50AE4F50BB2A57F017E0012019605E5
:100150000BE50BC394C840EED2A57F2C7E011201A3
:0B01600096050AE50AC3940540D92269
:030003000200DF19
:1000DF00C0E0C0D075D000C000C002C003C004C0D3
:1000EF0005C006C00712019220B20312016B75A062
:1000FF00FFD007D006D005D004D003D002D000D057
:04010F00D0D0E0323A
:03001300020113D4
:10011300C0E0C0D075D000C002C003C004C005C099
:1001230006C00712019220B303120140D007D00684
:0D013300D005D004D003D002D0D0D0E032EF
:1000A20075A0FFD288D28AD2A8D2AAD2BAD2AF2061
:1000B200B10C12019220B10675080130B1FD20B0D9
:1000C2000C12019220B00675090130B0FDE50860FE
:0D00D200031201D6E50960D71201B680D2F5
:100022000200A2E493A3F8E493A34003F68001F252
:1000320008DFF48029E493A3F85407240CC8C333DF
:10004200C4540F4420C8834004F456800146F6DFAE
:10005200E4800B0102040810204080900006E47E38
:10006200019360BCA3FF543F30E509541FFEE493A3
:10007200A360010ECF54C025E060A840B8E493A36A
:10008200FAE493A3F8E493A3C8C582C8CAC583CA95
:10009200F0A3C8C582C8CAC583CADFE9DEE780BE4D
:01000C0000F3
:00000001FF
