:030000000201E119
:0C01E100787FE4F6D8FD7581200202282A
:0C038E00020A000002080000C101C100CA
:10036D005389F0438901758CFF758A06D2A9D28C09
:03037D00D2AF22DA
:0E03800053890F438910E4F58DF58BC2AB2233
:0A035600EF1FAC0670011E4C600C96
:0C036000750C02AD0C150CED60EC80F784
:01036C00226E
:10031E00E4FDFCC3ED9FEC9E5015E4FBFA0BBB0015
:0F032E00010AEB646E4A70F50DBD00010C80E40E
:01033D00229D
:10026D00E4FBFAC2907F02FE120356D2907F0C7E01
:10027D0000120356C290209117C3EB9488EA941391
:10028D00500E0BBB00010A7F017E0012035680E663
:10029D00C3EB9488EA94134007750A03750BE722A4
:1002AD00D28EE4F58DF58BFAFB309117C3EB94A844
:1002BD00EA9461500E0BBB00010A7F017E00120310
:1002CD005680E6C28EAF8DEFAD8BF508EDF509AC1E
:1002DD0008E41201197B967A43798B783C12000E53
:0702ED001201528E0A8F0B73
:0102F40022E7
:1002F500C290C291C2A512036D12038012026DC392
:10030500E50B9405E50A94005004D2018002C20170
:090315007F647E0012031E80E3E8
:03000B0002033EAF
:02033E00C0D02D
:10034000758CFF758A06300108B200A20092A58064
:0303500002C2A541
:03035300D0D032D5
:10000E00EC4D6011E8497017ED33EC3304600DE4EC
:10001E00FCFFFEFD22E933E8330470F80201BE1244
:10002E00018958046009E4CC248150062850090245
:10003E0001C82840030201C5C0E0EB4A7044B980F4
:10004E0006D0E0FB0201B4EF4E701CBD8008EBFF42
:10005E00EAFEE9FD80EBE98DF0A4FEE5F00200F783
:10006E00E9CDF9EAFEEBFFEF89F0A4FCE5F0CE89CD
:10007E00F0A42EFFE435F0CD89F0A42DFEE435F08A
:10008E008067EF4E7005BD80D780C3EF8BF0A4ACB8
:10009E00F0EE8BF0A42CFCE435F0F8EF8AF0A42CF3
:1000AE00E5F038FCE433CB8DF0A42CFCE5F03BF806
:1000BE00EE8AF0A42CFCE5F038F8E433CF89F0A4F6
:1000CE002CFCE5F038CF3400CE89F0A42FFFE5F0FC
:1000DE003EFEE433C98DF0A42EFEE5F039CD8AF054
:1000EE00A42FFFE5F03EFEE43DFD33D0E0FB5007CC
:1000FE000BBB000F0201C8EC2CFCEF33FFEE33FEFE
:06010E00ED33FD0201A02B
:1001140075F020800E75F010800575F0087D007E66
:10012400007F003392D530D5031201D3EC33401055
:10013400EF33FFEE33FEED33FDEC33FCD5F0ED226F
:0E014400E5F0247EA2D513CC92E7CDCEFF22AB
:10015200EDD2E7CD33EC3392D524814006E4FFFEA5
:10016200FDFC22FCE4CFCECDCC24E0501174FF8004
:10017200EDC3CC13CCCD13CDCE13CECF13CF0470A1
:07018200F030D5DE0201D3CD
:10018900E9D2E7C933E833F892D5EDD2E7CD33ECBC
:0701990033FC5002B2D52235
:1001A000EC30E7100FBF000C0EBE00080DBD0004C0
:1001B0000BEB6014A2D5EB13FCED92E7FD2274FF6C
:1001C000FCFDFEFF22E480F8A2D574FF13FC7D80C5
:0301D000E480EFD9
:1001ED000202F5E493A3F8E493A34003F68001F231
:1001FD0008DFF48029E493A3F85407240CC8C33313
:10020D00C4540F4420C8834004F456800146F6DFE1
:10021D00E4800B010204081020408090038EE47EE0
:10022D00019360BCA3FF543F30E509541FFEE493D6
:10023D00A360010ECF54C025E060A840B8E493A39D
:10024D00FAE493A3F8E493A3C8C582C8CAC583CAC8
:10025D00F0A3C8C582C8CAC583CADFE9DEE780BE80
:01039A000062
:0E01D300C3E49FFFE49EFEE49DFDE49CFC223D
:00000001FF
