:030000000200F506
:0C00F500787FE4F6D8FD75812B02013CF9
:1002190020200820202020202020202020202020ED
:1002290020202020202020202020202020202020C5
:0602390020202001280036
:0E01C0007E001201CE7F3812029A7F057E006B
:1001CE00E4FDFCC3ED9FEC9E5015E4FBFA0BBB0067
:0F01DE00010AEB64724A70F50DBD00010C80E45C
:0101ED0022EF
:10029A00C2A6C2A58F80D2A70000C2A77F027E0095
:0302AA000201CE80
:06028100740829F8E6FFF5
:10028700D2A6C2A58F80D2A70000C2A77F027E0098
:030297000201CE93
:100240007F0F1201C07F3812029A7F051201C07F12
:100250000C1201C70F1201C77F0112029A7F057E9F
:04026000000201CEC9
:100264007F8012029AE4F912028109B910F97FC061
:0C02740012029A791012028109B920F9D7
:01028000225B
:07018100E528C39420402C87
:10018800E4F52B7418252BF8E6FE7408252BF8A641
:1001980006052BE52BB410EB752B107408252BF8EE
:0C01A8007620052BE52BB420F275281002
:0C01B40074082528F8A60705280202643C
:10000300E4F52B7590F7E59064F7602C7F0A7E008A
:100013001201CEAF90EF2449601124E0601224F066
:10002300601324707012752B01800D752B058008E9
:10003300752B098003752B0DE590B4F7FB7590FBC9
:10004300E59064FB602C7F0A7E001201CEAF90EF37
:100053002445601124E0601224F0601324707012B0
:10006300752B02800D752B068008752B0A8003758E
:100073002B0EE590B4FBFB7590FDE59064FD602CC1
:100083007F0A7E001201CEAF90EF2443601124E07B
:10009300601224F0601324707012752B03800D75A9
:1000A3002B078008752B0B8003752B0FE590B4FD90
:1000B300FB7590FEE59064FE602C7F0A7E001201C2
:1000C300CEAF90EF2442601124E0601224F060135D
:1000D30024707012752B04800D752B088008752B06
:1000E3000C8003752B10E590B4FEFBC3E52B940144
:0100F300FF0D
:0100F40022E9
:1001EE001202407F2078087420F608DFFC7F20E49E
:0F01FE00F5281202641200038F29E529F460F638
:0A020D00E5292441F52AFF120181C2
:0202170080EA7B
:100101000201EEE493A3F8E493A34003F68001F225
:1001110008DFF48029E493A3F85407240CC8C333FF
:10012100C4540F4420C8834004F456800146F6DFCE
:10013100E4800B0102040810204080900219E47E43
:10014100019360BCA3FF543F30E509541FFEE493C3
:10015100A360010ECF54C025E060A840B8E493A38A
:10016100FAE493A3F8E493A3C8C582C8CAC583CAB5
:10017100F0A3C8C582C8CAC583CADFE9DEE780BE6D
:01023F0000BE
:00000001FF
