:040000006F00407AD3
:100004000000000000000000080200000A020000D6
:1000140000000000A2070000000000000000000033
:10002400A2070000A207000000000000000000007A
:10003400A207000000000000A2070000000000006A
:10004400A2070000A2070000A2070000A207000008
:10005400A2070000A2070000A2070000A2070000F8
:10006400A2070000A2070000A2070000A2070000E8
:10007400A2070000A2070000A2070000A2070000D8
:10008400A2070000A2070000A2070000A2070000C8
:10009400A2070000A2070000A2070000A2070000B8
:1000A400A2070000A2070000A2070000A2070000A8
:1000B4005A160000A2070000A2070000A2070000D1
:1000C400A2070000A2070000A2070000A207000088
:1000D400A2070000F6150000A2070000A207000016
:1000E400A2070000A2070000A2070000A207000068
:0C00F400A2070000A2070000A207000005
:10010000397101436EC619A0397141536AC866CA74
:1001100062CC5ECE19A0397101535AD056D252D456
:100120004ED64AD826DA22DC06DE330161408282CE
:1001300041114AC026C222C406C68282B24D410184
:10014000024D924C224CB24B4101024B924A224A40
:10015000B2494101024992442244B24041018280A5
:100160003D432A876373C3029377F700BDEFADE584
:10017000937606FF3D8ABA960CC34CC30CC74CC796
:100180004107E36BD7FE11E28280B306C3408A06C3
:100190009702000096966780A6002307B700A30683
:1001A000B7002306B700A305B7002305B700A304D3
:1001B000B7002304B700A303B7002303B700A302CB
:1001C000B7002302B700A301B7002301B700A300C3
:1001D000B7002300B700828093F5F50F9396850052
:1001E000D58D93960501D58D61B79396270097021B
:1001F000000096968682E78086FA9680C1171D8F4A
:100200003E96E374C3F8A5B701A0B707EFBE37E782
:1002100000E0938707083CC701A0EFF27FF1054596
:10022000EF00B008C529EF100059EF10600BEF1078
:100230008044EF10E001EF00907137460000130694
:1002400046D985450545EF009079374600001306ED
:1002500006DA85450945EF00907837460000130619
:10026000C6DA85450D45EF00907737460000130646
:1002700086DB85451145EF009076014693057004B5
:100280001305703EEF00F04101469305700413051D
:10029000703EEF005049B707002083D5072337058C
:1002A000004013050540EF001029B707002083D553
:1002B00027233715004013050580EF00D02759BDCF
:1002C000EFF27FE5EF10A0462A845145EF10A054CD
:1002D000EF10E045AA845145EF10E053EF102045A0
:1002E000269422958D473345F502938441811384EA
:1002F00001822392A182EF205079B747000003A624
:1003000087DC83A6C7DCEF107047B747000003A661
:1003100007DD83A647DDEF20E037EF30607C88C043
:10032000EF304071B747000003A687DD83A6C7DD25
:100330002A89AE89EF20C01F6351A006374600000E
:10034000130686E08D450545EF0070698840EF3063
:10035000606EB747000003A607DE83A647DEEF20E6
:10036000E07EB747000003A687DE83A6C7DEEF1056
:10037000F040B747000003A607DF83A647DFEF2062
:100380006031B747000003A687DF83A6C7DFEF20F1
:10039000E07BEF30E07408C04DBBB747000003A618
:1003A00007E083A647E04A85CE85EF2040236350CF
:1003B0000506374600001306C6E08D450545EF00EB
:1003C00010628840EF300067B74700002A86AE868B
:1003D00003A507DE83A547DEEF204077B74700007F
:1003E00003A687DE83A6C7DEEF105039B7470000AB
:1003F00003A607DF83A647DFEF20C029B747000029
:1004000003A687DF83A6C7DFEF10404459B73746FE
:100410000000130606E18D450545EF00505C93078B
:1004200000001CC095BFEFF21FCFEF1080342A846C
:100430002945EF10403EEF10C033AA842945EF1044
:10044000803DEF100033269422958D473345F50209
:100450009384018113848181239EA180EF20F06227
:10046000B747000003A687DC83A6C7DCEF10103176
:10047000B747000003A607DD83A647DDEF208021F4
:10048000EF30006688C0EF30E05AB747000003A69F
:1004900007D783A647D72A89AE89EF206009635121
:1004A000A00437460000130686E08D450945EF009D
:1004B00010538840EF300058B747000003A687D795
:1004C00083A6C7D7EF208068B747000003A607D8E8
:1004D00083A647D8EF20001CEF30806008C0B5B17C
:1004E000B747000003A687D883A6C7D84A85CE851C
:1004F000EF20E00E63560502374600001306C6E003
:100500008D450945EF00B04D8840EF30A052B74708
:1005100000002A86AE8603A587D783A5C7D75DB717
:1005200037460000130606E18D450945EF00304BC4
:10053000930700001CC065B7EFF29FBF13840182D0
:100540000840B7440000EF30203D131605018946EE
:10055000418291450545EF00704B00402285EF3008
:10056000A03B42054181EF308040AA852285EF30D3
:10057000200283A504D913848181EF203058EF3005
:10058000A039131605018D4641829D450545EF00B2
:10059000F0470840EF304038131605018546418288
:1005A00091450945EF00904600402285EF30C03666
:1005B00042054181EF30A03BAA852285EF20507D86
:1005C00083A504D92944EF207053EF30E03413168B
:1005D00005018D46418299450945EF003043B70733
:1005E000002003D607238D469945335686020D45D4
:1005F000EF00D041B707002003D627238D46994549
:10060000335686021145EF007040A9B6EFF25FB293
:1006100029317D311305800CEF10E01F2935293F6A
:100620001305800CEF10201FEDB7B7170240984359
:10063000B706FFF041111367170098C3D843370678
:100640000200758FD8C39843B706F7FEFD16758F65
:1006500098C39843B706FCFFFD16758F98C3D8431F
:10066000B70601FFFD16758FD8C337079F0098C7DF
:1006700002C402C69843C166558F98C3B71602409C
:1006800005679C42F18F3EC6A24785073EC4B2472C
:1006900081E7A247E397E7FEB71702409C43139711
:1006A000E7006357070685473EC632478547631F05
:1006B000F704B7170240D843B706C1FFFD16D8C3E9
:1006C000D843D8C3D84313670740D8C3D843758FDE
:1006D000D8C3D843B7061D00558FD8C39843B70673
:1006E0000001558F98C3984393166700E3DD06FE1B
:1006F000D843B7160240719BD8C3D843136727006D
:10070000D8C32147DC42B18BE39EE7FE41018280E2
:1007100002C661BFB7160240DC421146B18B138797
:1007200041806385C70021466388C702B7177A00F6
:10073000938707201CC3B7170240DC43918393F6CD
:10074000F700B707002093870700B69794231C4350
:10075000B3D7D7001CC38280DC42D4424166C98330
:10076000BD8BF18E890745466393C700C94781EE6B
:10077000B746024083A60680C18A89CEB7167A00A2
:100780009386062021A8B7160240D4421396E600AD
:10079000E35606FEB7163D0093860690B387D70250
:1007A00051BF01A0970100209381C128175100205B
:1007B0001301418517450000130505E19705002049
:1007C000938545841386018163FAC5008322050061
:1007D00023A0550011059105E3EAC5FE13850181AB
:1007E000938581956377B500232005001105E36D9E
:1007F000B5FEFD42739002BC8D427390428093021D
:1008000080087390023097F2FFFF9382E27F93E2B9
:10081000320073905230EFF05FE197020000938254
:1008200022DF73901234730020305C413707F1E00F
:100830001307F7EF944D7D8F9C41D58FD44DD58F05
:10084000D441A206D58FD98F5CC11C4537F7F1FF83
:100850001307D77FD4457D8F9C49D58F9445860655
:10086000D58FD98F1CC55C55370710FF7D177D8F3D
:10087000DC29FD1793F7F70FD207D98F5CD582805B
:100880001C4589C593E717001CC58280F99BEDBF05
:100890001C4593E787001CC5828008450D810589AA
:1008A00082801C4593E747001CC58280084509816A
:1008B000058982801C4591C537075000D98F1CC51A
:1008C00082803707B0FF7D17F98FD5BFA54763F743
:1008D000B7048D47138765FF3307F7020328C50068
:1008E0009D47B397E70093C7F7FFB3F70701B396A8
:1008F000E600DD8E54C5994763E3C70495477D162E
:100900003306F6025859FD47B397C70093C7F7FF60
:10091000F98F3396C5005D8E50D982800D4733879D
:10092000E502032805019D47B397E70093C7F7FF4A
:10093000B3F70701B396E600DD8E14C96DBFB1476A
:1009400063E2C702954765163306F6021859FD475C
:10095000B397C70093C7F7FFF98F3396C5005D8E35
:1009600010D9828095474D163306F6025855FD473B
:10097000B397C70093C7F7FFF98FB395C500DD8D17
:100980004CD58280684542054181828008416D8D49
:100990003335A000828093C5F5FF0CC182809C4551
:1009A00013F7070113F8F70001C7D8413368E800CF
:1009B00037270240145B3707000F758F4DEB8546D4
:1009C0002383D182371701406315E5009A213583CF
:1009D0009AA18E2113F7F50F39C318418146854E30
:1009E0003D4F930F800293028004214E3396DE0028
:1009F000B3F8C500631116039398260033131F0143
:100A00001343F3FF3377E300B318180133E7E8002B
:100A10006397F70750C98506E39AC6FD18C1130707
:100A2000F00F6375B70454412146854E3D4F930F37
:100A3000800293028004414EB398CE0033F7150133
:100A40006392E8021317260001173313EF001343D4
:100A5000F3FFB376D3003317E800D98E6395F7031D
:100A6000232A15010506E319C6FD54C182803717F4
:100A70000140E310E5F603C7618221DF81BFE39CFB
:100A800057F810C949BFE39F57FC23281501D9BF68
:100A9000B71701406316F50083C7618291C3B58122
:100AA00019C20CC982804CC9828023A4A182828091
:100AB00003A78182854714216310F7021C31639CD0
:100AC000E7023C21960793E707F837E700E093F742
:100AD000F70F36972300F740054793D75600331793
:100AE000D700544189CE938707048A07B7E600E010
:100AF000B69798C38280EDF33C219607F9B79387A8
:100B00000706E5B7B7160240DC4251777D17F98F2B
:100B10005D8DC8C28280371702405C439146B18B1D
:100B20006385D700A1466382D706B7177A009387FB
:100B300007201CC1371602405C423707002013070C
:100B400007019183BD8BBA9794231C41B3D7D7007B
:100B50005CC15442A1829D8ABA969422B3D6D70032
:100B600014C55442AD829D8A36971823B3D7E70047
:100B70005CC5584239839376370013878180369756
:100B80001823B3D7E7021CC982805C435843C1666F
:100B9000C983BD8B758F8907C5466393D700C94745
:100BA00001EF3747024003270780418B09CF3717F2
:100BB0007A001307072021A83717024058439316DD
:100BC000E700E3D606FE37173D0013070790B3870B
:100BD000E70285B799C5371702401C4F5D8D08CFD6
:100BE0008280B7170240984F1345F5FF798D88CF63
:100BF000828099C5371702405C4F5D8D48CF828057
:100C0000B7170240D84F1345F5FF798DC8CF8280C2
:100C10001E2137370140130707C0C207C183630491
:100C2000E502370700406300E50213070740630C45
:100C3000E50037170040930607806306D5001307C9
:100C400007C06316E500BA2193F7F7F8D98FFA21A8
:100C500093F7F7CFC207C183D98F1EA1DE215EB5FE
:100C60009E211EB5B7370140938707C06314F50076
:100C70009C251EB985475EA982801E31922103D82A
:100C80002500C207C183F99BC207C1831EB11E3173
:100C900056211A2DC207C183420741831377C7F833
:100CA000518F9225F59BC20633660601D18F3736E8
:100CB0000140130606C0C1826310C502B225DD9B48
:100CC00003D8E500D18FD221ED9B93F6F6CFD18FDB
:100CD000D22533660601D18E56A11AADFA215AB932
:100CE0001EB182801E2189C593E717001EA1828054
:100CF000C207C183F99BC207C183CDBF5E2501C670
:100D0000DD8D4EA5828093C5F5FFFD8DDDBF1E21D3
:100D100089C593E707081EA18280C207C18393F7A4
:100D2000F7F7C207C183C5BF1E2DC207C183DD9B74
:100D3000DD8D0EAD82804EB982801E294A25ED8F51
:100D40004205418189C76D8D3335A0008280014500
:100D5000828093C5F5FFC205C1810EA98280EFF2A2
:100D60002FBD1629F577FD17F58FF621DA25797154
:100D7000D58F1EA95625FD779387379FF58FD621EE
:100D80002A842EC6D58F9625D58FB625D58F5EA5FC
:100D90005E29C207C18393F7F7CFD98F5EA9680890
:100DA0009D3BB747014093870780B245631EF4021D
:100DB000A2576547B387E7029841930640060A07A2
:100DC000B3D7E70233D7D702B3F7D7021207920798
:100DD00093872703B3D7D702BD8BD98FC207C183AF
:100DE0001EA445616FF00FB79257E1B791C55E251C
:100DF0000967D98F5EA582805A25F977FD17F98F8B
:100E0000D5BF13F7F50F85471583B395B700631961
:100E1000F7009307C500984301CED98D8CC382801B
:100E2000894693074501E318D7FE93070501E5B707
:100E300093C5F5FFF98DDDB793F5F51F4EA18280BF
:100E40004A211375F51F82800A216D8D3335A0006C
:100E5000828013F7F50F85461583B397B6006311AB
:100E6000D7025A25F98F1A2101454207418381CBC8
:100E70000545A181B315B5006D8F3335E000828043
:100E800089466314D7001A29F1BF5A29E1BFA1810D
:100E90008547B397B70093C7F7FFC207C1831EA169
:100EA0008280EFF2EFA83971AA842E840945854526
:100EB00032C6813385451545313BE1473ED637156E
:100EC0000140930700042312F1024C108D471305D3
:100ED00005803ED4E934E084370400402C08130533
:100EE0000440E486231F0100231D01001533324610
:100EF000C167938707060C18130504403ED8231BCF
:100F0000C102231C0102953B13050440A145293D64
:100F1000130504408545E53B854513050440D93359
:100F200021616FF02FA3EFF2AFA03971AA842E8454
:100F30001145854532C67539854525456139E147F5
:100F40003ED637150140930700042312F1024C10DE
:100F50008D47130505C03ED49934E0843714004012
:100F60002C0813050480E486231F0100231D0100C3
:100F700045313246C167938707060C181305048074
:100F80003ED8231BC102231C0102C539130504806E
:100F9000A145593B130504808545953B85451305BF
:100FA0000480893321616FF0EF9AEFF26F9841115D
:100FB000854521450531C1473EC68D47371401405F
:100FC0003EC48567938707C04C00130504C07C822C
:100FD000EFF0FF9C8565130504C0054693850580E9
:100FE000453C054693050040130504C055344101B6
:100FF0006FF04F96EFF2CF9337140140130504C002
:101000000546930500406934856493850480130583
:1010100004C00546B53C130504C0014693050040D5
:10102000853C014693850480130504C095346FF018
:101030006F92EFF2EF8F37140140130504C00146A1
:1010400093050040EFF0DFA48565130504C0054655
:1010500093850580EFF0DFA3054693050040130557
:1010600004C0EFF0FFA26FF0EF8EEFF2EF89B7143C
:10107000014005692A8B0144930B0008938904C041
:10108000130A0980A14A33D68B4033766601333682
:10109000C000930500404E85EFF09F9F0945EF008B
:1010A00020740546D2854E85EFF09F9E0945EF00DE
:1010B00020730146D2854E85EFF09F9D09450504BA
:1010C000EF000072E31154FD930509800546138576
:1010D00004C0EFF0FF9B0945EF00807001469305C7
:1010E0000980138504C0EFF0BF9A0945EF00406FF7
:1010F0006FF00F85EFF2CF832A84ED3D1305800753
:10110000AD3701459D3722858D3725376FF08F84A8
:10111000EFF20F822A84F93D13058007B9371305D2
:101120000004A1372285913729376FF0AF82EFF2A3
:101130002F801365050B2E84753F135544001365EE
:1011400005014D3F1375F40075376FF0AF80EFE286
:101150003FFE0144214981452285D13F9304000887
:101160000145FD147537EDFC05041374F40FE31409
:1011700024FF6FE03FFEEFE21FFA9304F507938927
:10118000F50186048E093289116493F4F40F93F902
:10119000F90F930A44E1CE8526851209493FCA9A80
:1011A000214A130444E103C50AE07D1A137AFA0FB9
:1011B0008537850AE3190AFE13851400CE85137559
:1011C000F50F130909E0A5374A94A1440824FD143A
:1011D00093F4F40F353F0504F5F86FE01FF7EFE2E5
:1011E0009FF32A89AE89B2840144B38784000386C1
:1011F000070019E26FE07FF5B305340193F5F50FB1
:101200004A8505048D3F1374F40FC5B7EFE2BFF0B4
:101210002A89B289338AB600FD5AA94499E26FE05F
:10122000DFF2B305DA40FD1693F5F50F0546368477
:10123000FD16639C560133D6C9024A853376960261
:10124000130606030D3FA286D1BF33069602CDB723
:10125000EFE21FEE993B1305E00A693D1305500DBF
:10126000513D1305000879351305800A61351305D2
:10127000F00349351305300DB53D0145A53D130576
:1012800000048D3D1305100AB5351305800C9D35FE
:101290001305A00D85354945B13D13051008993D4D
:1012A0001305F00C813D1305900DA9351305100FA2
:1012B00091351305B00D3D3D13050003253D130584
:1012C000400A0D3D1305600A35351305D0081D355C
:1012D00051450D351305F00A313D953D6FE09FE70F
:1012E000EFE21FE51165797185451105EFF09F8EDD
:1012F00093070020FC82371401408D473ECC4C08F8
:10130000E147130504803ECEEFF06FE993070040FC
:10131000FC824C089147130504803ECEEFF02FE885
:10132000896793870758374401403ED0B7070C00C0
:10133000938707400C10130504803ED402D2231675
:101340000102EFF0DFA1054693055052130504801A
:10135000EFF03FAB930750137C8685475C876800AE
:1013600085473EC8EFF0CFF4130504808545EFF0C4
:10137000FFA785450545EFF0DF87930770043ED052
:101380000C109307703E370500403ED2EFF05F88A7
:101390000546854537050040EFF05F96B7E700E06A
:1013A000056723A2E710854537050040EFF09F93BE
:1013B00013062012814513854183EFE07FDA4561F2
:1013C0006FE05FD9C16769768146FD1705061397FF
:1013D000060141836364B7003E8582803307D500F0
:1013E0001823B98F214713F8170085836305080078
:1013F000B18FC207C1837D171377F70F6DF785068D
:10140000F9B7EFE2FFD237040020374901408144A9
:1014100013040402130909808357242063EDF400A8
:101420001306001081451305241023110420EFE05A
:101430003FD36FE03FD2930500084A85EFF0DFA06D
:101440007DD9B307940083C5271085044A85C2045B
:10145000EFF09F9EC180C9B7EFE29FCD3709002012
:101460009307090283D407108D471304090263F719
:1014700097109385E4FFC205C181130509029937CE
:10148000A29483C7F4FF03C7E4FFA207D98F639731
:10149000A70E1C20834644206386D7001307F00F55
:1014A000639EE70C04308D47638EF4029947638294
:1014B000F40E85472302F41093E404F88D478D451C
:1014C000130524102311F4202301D410A301941038
:1014D000D53DA302A410954721812311F4202303B5
:1014E000A41061A838203C30503022075D8F5C206A
:1014F000A207D18FC207C18793950701C181330528
:10150000B700130600046342A60CE1C1860723015D
:10151000D4109386418393F7F70F06073697A301FC
:1015200094102302F410228681462A338506C206CF
:1015300013588500A30206112303A610C1820907D0
:101540000906E394D5FE8D0793F7F70F2311F420D6
:101550008354242013052410A685AD35B3079400C9
:101560002381A710938724008504C204C180A2941C
:1015700021812311F4202381A4106135130600106A
:1015800081451305090223100410EFE07FBD6FE0D1
:101590007FBC3C203830A207D98F1307F003636665
:1015A000F702C107138741838607BA975820543042
:1015B00019462207558F9305090213052410BAA373
:1015C000EF20806F2311942061B78947E5B5EFE2E2
:1015D0003FB6B707002083D707121384C18281CB9F
:1015E0001C40254785071CC06375F700B5352320CF
:1015F00004006FE03FB6411122C637440140930515
:10160000505213050480EFF0DF8421C513050480D8
:10161000EFF01F83B7070020138707020357071057
:101620009306F00F9387070263E8E600930617001E
:101630003E972390D71008A3370700405A33374509
:101640000140930550521305058023A4E720EFF0D5
:101650001F84324441017300203085453705004026
:10166000EFF0AFED19C5A537854537050040EFF020
:101670004FEE73002030EFE2BFAB79718545130563
:101680000020EFF02FD585451145EFF0AFD421654F
:10169000EFF04FC78D47371501407C824C008D47D6
:1016A00013050580372401403EC402C6EFF02FAF7A
:1016B00089460546814513050440EFF02FA1894670
:1016C0000946854513050440EFF04FA0B7070E000B
:1016D0003ECE0C088547130504402302F10202C8E0
:1016E00002D002CC02CAEFF04F94854513050440A6
:1016F000EFF00F9913050440EFF08F9913090440A0
:1017000085444A85EFF06F99E30D95FE130504407B
:1017100037240140EFF0EF981304044085442285FC
:10172000EFF0CF98E30D95FE45616FE0BFA2EFE2C9
:101730003FA037240140894513050440EFF0AFA5D1
:1017400089460546814513050440EFF02F988545ED
:1017500013050440EFF00F96930404408945268555
:10176000EFF0CFA265DD13050440EFF0AFA16FE00D
:101770007F9EEFE2FF9B372401408945130504401B
:10178000EFF06FA189460546854513050440EFF04B
:10179000EF93854513050440EFF0CF919304044087
:1017A00089452685EFF08F9E65DD13050440EFF037
:1017B0006F9D6FE03F9AB707002083A74723371735
:1017C0007A0013070720B3D7E70293F7F70F2389AF
:1017D000F1821307803EB387E7022398F18282806B
:1017E000B7F700E0D8438146799BD8C303C721836C
:1017F0003306A70290CBD4CB98431367070198C355
:1018000098431367170298C3D843058B75DF984335
:10181000799B98C38280B7F700E0D8438146799BD3
:10182000D8C303D701833306A70290CBD4CB984308
:101830001367070198C398431367170298C3D843E7
:10184000058B75DF9843799B98C382803708100019
:1018500001117D183377B80026CA3378D80093D4A5
:10186000450113D34601131E37004EC61357D50149
:101870000E089357D60193F4F47F1373F37F06CECB
:1018800022CC4AC893D9F50193DEF6013367C7012C
:10189000131F350033E80701931F3600338E644071
:1018A0006380D9196356C0136304031CB706800014
:1018B0009307F07F3368D800638FF4369307800373
:1018C00063C0C735FD4763CDC74713050002330525
:1018D000C541B3D7CF01B316A8003399AF00DD8E51
:1018E00033392001B357C80133E926011D8F33096D
:1018F0002F41B3372F013306F7409317860063D487
:101900000724370780007D173374E600630C042C2E
:101910002285EF208033130785FF93070002998FFC
:10192000B357F9003316E400D18F3319E90063414E
:10193000972A33059740130615007D47634DC73836
:1019400013070002118FB356C9003319E90033970A
:10195000E700558F333920013369270133D6C7009B
:1019600081449377790081CF1377F9009147630819
:10197000F70013074900333927014A963A8993172C
:10198000860063D6071C138514009307F07FCE856D
:101990006304F520B70780FFFD17F18F9398D701F7
:1019A00013593900A607B3E82801B1831375F57FF1
:1019B0009396C7005205F2406244B182FE05C98E7B
:1019C000CD8ED2444249B2494685B68505618280B2
:1019D000631E0E0A138314001373E37F631703223D
:1019E000B367E701B368F801639D041A6387074092
:1019F000638608443309FF41B307074133362F019B
:101A00003386C7409317860063D6074C3389EF416E
:101A1000B307E84033B62F013386C740F68991B744
:101A20006350C00F6300030CB70680009307F07F7C
:101A30003368D800638AF43A9307800363CBC713F3
:101A4000FD4763DFC73513090EFE93070002B35647
:101A50002801630AFE00130900043309C941331940
:101A60002801B3EF2F013339F0013369D90031A2D6
:101A7000B367F801638A071C9307FEFF638C07387E
:101A80009306F07F6309DE1A3E8E0DBDB3059340C9
:101A900063910422B367E701638707329387F5FFF9
:101AA000638107449306F07F638CD520BE8593073E
:101AB000800363CCB72AFD4763CFB73C930700028E
:101AC0008D8F3319F700B356BF00B317FF0033698A
:101AD000D900B337F0003357B7003369F900330842
:101AE000E84041ACB367F801638007349307FEFF19
:101AF000638A07209306F07F6308DE2E3E8E2DBF9B
:101B0000631E0E149386140093F7E67F63910734E7
:101B1000B367E7016395042C6380073EB367F80160
:101B2000638E07303309FF01B3070701333FE90133
:101B30003386E7019317860063D70700B70780FF56
:101B4000FD177D8E854493777900E39F07E0931717
:101B5000D60193583900B3E8F800935736001307BD
:101B6000F07F638DE404B207B18313F5F47FCE8573
:101B700081B53369F801333920017A99B337E90126
:101B80003386E70093178600E3DF07FA850493079F
:101B9000F07F6396F418CE851305F07F8147814866
:101BA00001BDC1EB6384083A931636009317D80140
:101BB0008D82B3E8D700F68993573800B3E7F80071
:101BC000F9DB81451305F07FB70708008148CDB3E5
:101BD000370680FF7D167D8E93777900998CE3958B
:101BE00007D8B5B74A85EF20400613078501FD47A2
:101BF000E3D5E7D2130685FFB317C900014905BB3A
:101C00003369F80133392001DDB13309FF4133066F
:101C1000074133342F01330486409317840063CD8A
:101C20000724B3688900E39308CE81478149814442
:101C30001DBFE39808F80E059317D7010D81B3E88F
:101C4000A700935737009DBF0E059317D7010D814D
:101C5000B3E8A700F2849357370011B733059340D8
:101C600063820412B70680009307F07F558F630DDF
:101C7000F32E9307800363CBA720FD4763C3A72AF6
:101C800093070002898F3319F700B356AF00B317DB
:101C9000FF003369D900B337F0003357A700336929
:101CA000F9003A987E99B337F901338607019A848F
:101CB000D1BDB70680009307F07F558FE319F3DE9F
:101CC000931736008D839318D801B3E81701F6896E
:101CD00093573800E5B5130715FE9306000233D776
:101CE000E700630AD600930600043386C6403396A5
:101CF000C7003369C900333920013369E90001465F
:101D0000814491B53309FF01B30707013336E90177
:101D10003E96931786008544E3D707E28944B707C8
:101D200080FFFD17F18F13571900137919003369DC
:101D300027019398F70133E9280113D6170015B14D
:101D400013090EFE93070002B3562801630AFE0032
:101D5000130900043309C94133192801B3EF2F01D6
:101D60003339F0013369D90059B63369E7013339A2
:101D7000200133892F41B3B72F013306F8409A84ED
:101D8000F689A5BEB367E701638207189307F5FFDD
:101D90006384071C9306F07F6304D5123E85D1BD92
:101DA00093070002B387C741B316F8003399FF00C9
:101DB00033D6CF01D18E33392001B357C80133E96F
:101DC00026013E975DBB931736008D839318D8018B
:101DD000B3E81701AE8493573800F68949B3EDC3D1
:101DE0003369F801E31F09DC0E059317D7010D8154
:101DF000B368F50093573700D1B36381080E93168B
:101E000036009317D8018D82B3E8D700F68993572F
:101E1000380091BB3309FF41B3070741333F2F011E
:101E20003386E7418544D1BC0E059317D7010D8158
:101E3000B368F500F2849357370015B30E05931776
:101E4000D7010D81B3E8A7009357370029BB93074B
:101E5000F07FE382F6D43309FF013336E901B3079B
:101E60000701B2979398F7011359190033E9280134
:101E700013D61700B684C1B93389EF413307E84060
:101E800033B62F013304C740F68949B43369E701FB
:101E90003339200101BD938705FE93060002B35735
:101EA000F700638AD50093060004B385B640331764
:101EB000B700336FEF003339E0013369F90055BDE6
:101EC000931736008D839318D801B3E81701935701
:101ED0003800EDB1B368C900E39708C6814781496E
:101EE00059B13389EF41B307E84033B62F01338648
:101EF000C740F689854411B4931636009317D8016C
:101F00008D82B3E8D70093573800B1B993163600E5
:101F10009317D8018D82B3E8D700AA84935738006D
:101F20003DB9930705FE93060002B357F700630A15
:101F3000D500930600043385A6403317A700336FFE
:101F4000EF003339E0013369F900A9BB814513057E
:101F5000F07FB7070800A9BC3309FF01B3070701E9
:101F60003336F9013E9675B3931636009317D801B0
:101F70008D82B3E8D7009357380089B1397193D770
:101F8000450122DC4AD856D22A891394C50006DEC0
:101F900026DA4ED652D45AD05ECE13F5F77F318072
:101FA00093DAF501630B05109307F07F630BF514CB
:101FB000135AD9010E0433648A00370A8000336A49
:101FC0004401131B3900930415C00144814B13D8FD
:101FD00046011399C6001378F87FB2881359C900D7
:101FE00093D9F601630E08089307F07F6300F804A5
:101FF0001357D6010E0933692701130818C0B70714
:1020000080003367F90093183600B384044181459A
:10201000BD4733C83A0163E4871A972700009387C6
:10202000A73E0A043E9410403E9602863367C900DC
:102030009384148063120710136424008148894537
:10204000C1BF1306F07F81470147B207F2506254C7
:102050005206B1837E08D18FB3E70701D2544259AB
:10206000B259225A925A025BF24B3A85BE852161DF
:10207000828001481306F07FB70708000147F1B7D7
:102080003367C9004DC7630809304A8532C4EF1071
:10209000D03B2246130755FFF547930685FF998FDE
:1020A0003319D900B357F60033E72701B318D60028
:1020B00026959304353F8145A1BF336A240163030C
:1020C0000A0636C632C46306042A2285EF10F037AA
:1020D0002246B246AA84130755FF754A138B84FF24
:1020E000330AEA4033146401335A4901336A8A00DF
:1020F000331B69011305D0C0B30495400144814BE3
:10210000F9B5336A240163180A002144014B930492
:10211000F07F894B6DBD228A4A8B31449304F07F56
:102120008D4B75B51144014B8144854B4DB51364FE
:10213000140081488545E9BD136434004A878D4504
:10214000C1BD630A052E8547898F9306800363DD31
:10215000F632014681470147CDBDCE868947638D62
:10216000F53A8D47E387F5F085473688E383F5FE3A
:102170001385F43FE357A0FC93F778006396072894
:1021800093D638009317770063D80700B70700FF8E
:10219000FD177D8F138504409307E07FE3C3A7EA13
:1021A0001316D70193179700B1833367D6001376C0
:1021B000F57F61BDD6865287DA88DE8545B76361D3
:1021C0004723630DEA20DA86FD145284014B9317EE
:1021D000870013D388013363F300935E0301B35781
:1021E000D403131F0301135F0F0193D50601139E40
:1021F00088003374D4033307FF024204C18D63FBAC
:10220000E5009A951386F7FF63EE652663FCE526E5
:10221000F9179A95998D33D7D503C206C182B3F5C4
:10222000D5033306EF02C205D58D63FBC5009A9531
:102230009306F7FF63E6652463F4C52479179A953E
:10224000C20741645D8F9307F4FF3375F70093581D
:102250000701935F0E01B377FE00B302F502B38668
:10226000C540B383F80293D502013386AF021E96B0
:102270002E963385F803637376002295C168FD18A6
:1022800093550601337616014206B3F81201AA955A
:10229000469663E6B6126382B6123306CB408D8E45
:1022A000333BCB00338B66411385F43F630C6317DC
:1022B000B358DB0393550601337BDB03B3061F03DF
:1022C000420B33EB6501637BDB001A9B9385F8FFC0
:1022D000636D6B20637BDB20F9181A9B330BDB40AB
:1022E000B356DB0342064182337BDB03330FDF024D
:1022F000420B33666601637BE6011A969385F6FF0F
:102300006367661E6375E61FF9161A96C208B3E87E
:10231000D8009395080193D20801C181B38EF502CC
:102320003306E641B385BF0293D60E01B387F202AE
:10233000BE95AE96B38F5F0263F4F600C167BE9F91
:10234000C165FD1593D70601ED8EC206B3FEBE0032
:10235000BE9FF696637FF6091A969387F8FF636926
:10236000661A6368F619630FF61BBE8893E81800B7
:1023700011B54A85EF10700D13075501F14593040F
:1023800005022246B246E3DAE5D4130485FF331A88
:102390008900014B85B3328532C4EF10100B13074F
:1023A0005501F146AA87224613050502E3D6E6CE7B
:1023B000E1173317F6008148E5B9E370CBEE729B65
:1023C0003335CB011A95AA961305F7FF6378D3022C
:1023D00063E6B6106382D5102A87C1B5E3651BDFBB
:1023E00093551B009316FA0113541A00CD8E7E0BE1
:1023F000F9BBE31DF6F7E38F06D6B9BFE31ED3FCA6
:10240000E378CBFD2A8751BD93F7F8009146E38925
:10241000D7D693B7C8FF9386480093C717008D821D
:102420003E978DB381468547E34CA0FEFD58E31CE3
:1024300005D0930410C085471385E441B316A70067
:1024400033D6F8003395A800D18E3335A000C98E5D
:1024500013F676003357F70001CE93F7F6001146D6
:102460006388C70093874600B3B6D7003697BE8609
:102470009317870063D80704054681470147F1B6E3
:1024800036877DBBB28779B3FD46E3D7F6FA0556AA
:10249000098E930600023356C7006388D7009387DE
:1024A000E443B317F700B3E8F800B3361001D18E58
:1024B00013F67600814701CE93F7F60011460147E7
:1024C000E392C7FA931797001316D701B18313D776
:1024D0003600518F014695BEE370CBF0729B3335C9
:1024E000CB011A957917AA964DBBAE88C5BBAE86AF
:1024F00031BD93171E0033BEC70172931A96F918A7
:102500003E8EE315F6E7E307DEC693E818009DB1BB
:10251000BE88E30AF6FF99BD36881306F07F81472F
:10252000014725B6E367DEFCBE88E310DEFE99B105
:1025300013D74501B7071000FD1713D846011377CD
:10254000F77F9308F07F33F3B7002A8EF58FFD8174
:10255000B28E1378F87FFD826308170363001803B7
:102560000DEBB368A300631408005D8E29CA638570
:1025700008046388D502054595ED8280B3E8C7005D
:10258000E38008FE795582803365A30065FD630C06
:10259000E802631408005D8E79DEE39ED5FCE34C0F
:1025A000E8FC63480701E3E867FC6303F302637F29
:1025B000F30081E57D558280F5DE05458280014589
:1025C000E39B08FA82805D8E69DA6DBF01458280E7
:1025D000E3E3CEFB0145E372DEFBE5F1E1BF13D798
:1025E0004501B7071000FD1713D846011377F77F91
:1025F0009308F07F33FEB700AA8EF58FFD81328FEE
:102600001378F87FFD82630E1703630D180129E329
:10261000B368AE00631F08005D8E01EE0143638C5A
:10262000080421A8B3E8C7000943639608046DD3E2
:1026300005A0638408046385D50205438DCD7D53D1
:102640001DA8B368AE00094363970802630AE80255
:10265000631408005D8E75D2E391D5FEE34FE8FC6C
:1026600063490701E3EBC7FD630FFE000143637499
:10267000FE00F1D505431A858280EDFE7D53E5BF4E
:102680005D8E79DACDBFE36ADFFB0143E3F5EEFF50
:10269000F5F175B739714AD813D945014ED652D4E0
:1026A00056D29399C50006DE22DC26DA5AD05ECED9
:1026B0001379F97F2A8A93D9C90093DAF501630D5A
:1026C000090E9307F07F6306F9181354D5018E099C
:1026D000B36934013704800033E489009314350072
:1026E000130919C08149814B13D74601139AC600BB
:1026F0001377F77FB285135ACA0013DBF601630B19
:1027000007109307F07F6303F7049357D6010E0A6F
:1027100033EA4701130717C0B7078000B367FA0011
:10272000931536003A99814833C76A01BD463A8508
:102730001308190063E83617172600001306C6D0E1
:102740008A09B29983A60900B2968286B367CA0045
:102750001309F97F6399071293E929008145894894
:10276000E1B701479307F07F370408008144320442
:10277000D20731807E075D8C598CA285F25062545D
:1027800026854259D254B259225A925A025BF24BD0
:10279000216182805A853E84AE84C68B8947638DD1
:1027A000FB0E8D47E38FFBFA85472A87639EFB3834
:1027B00081470144814465BF33E4A90061C036C646
:1027C00032C4638C092A4E85EF1020482246B24657
:1027D000AA87130755FF7544938487FF198CB39913
:1027E000990033548A0033643401B3149A0013D728
:1027F00046011309D0C0139AC6001377F77F330937
:10280000F9408149814BB285135ACA0013DBF601A6
:10281000E31907EEB367CA00B1C7630F0A225285F6
:1028200032C4EF10804222462A87930655FFF547AF
:10283000930587FF958F331ABA00B357F600B3E7B5
:102840004701B315B6003309E9401309D9C08148DF
:10285000E1BD33E4A90001ECA14981441309F07FF3
:10286000894B59B593E919008145854875BD4E845A
:10287000AA84B1491309F07F8D4BBDB591498144BC
:102880000149854B95B593E93900D2878D4869BDDB
:1028900089475685E397FBF02A879307F07F014429
:1028A0008144F1B5C16E1386FEFF93D6040113DE99
:1028B0000501F18CF18D338695023383B60293586E
:1028C000060133059E021A95AA98B382C60363F3E4
:1028D0006800F692C16F1383FFFF33F5670093D34F
:1028E0000701B3F76800C207337366003E933306EF
:1028F000950293D80801B387A602135F0601B3843B
:102900009302BE94FA94B38E760263F3F400FE9EB3
:10291000416A9307FAFF935F0401B376F400B3F9B9
:10292000F4007D8EC1803384D502C209338FD40177
:10293000B299CE98B307DE02935E0401B385BF025D
:10294000AE97BE9E330EFE0363F3BE00529EC16778
:102950009385F7FF33F6BE006D8C4206229693DE18
:102960000E01B305D502769E3385AF0213D405015F
:10297000B386D302AA96A296B38FF30363F3A6009D
:10298000BE9F41657D15B3F7A600C2076D8DAA975E
:10299000B3855800B3B93501FA97B295338437013E
:1029A00033B6C500B30EC4013385CE0033343401D1
:1029B000B3B7E701C18F33BECE0113D4060133365E
:1029C000C5003E943366CE009394950032947E9475
:1029D000B3E46400260493567501B3349000DD819E
:1029E00093179500CD8C558CDD8C9317740063DBA9
:1029F000070093D7140085889316F401DD8CD58CDD
:102A0000058042899307F93F6359F00893F67400F3
:102A100081CE93F6F40011466388C6009386440085
:102A2000B3B496002694B6849316740063D8060057
:102A3000B70700FFFD177D8C930709409306E07FE1
:102A400063CFF60E93D634009314D4012604D58CAC
:102A5000318093F7F77F21BB328532C4EF10E01E3F
:102A600093065501F147130705022246E3D1D7DC4F
:102A70006115B317A6008145F9B3EF10001D1307C8
:102A80005501F145930705022246B246E3D5E5D448
:102A900061153314AA00814499BB85469D8EB1E728
:102AA0001309E941B3972401B3D4D40033192401A5
:102AB000B337F000B3649900DD8C93F77400B3561C
:102AC000D40081CF93F7F40011466388C700938741
:102AD0004400B3B49700A696BE849397860063D84B
:102AE000070485470144814459B113068003E3413B
:102AF000D6CC7D46E356D6FA0556B307F640930585
:102B000000023356F4006387B6001309E943B31794
:102B10002401DD8CB3349000D18C93F67400014411
:102B200099CA93F7F40011468146E392C7FA1394C9
:102B300096003180F6068D80D58C81470DB99307BC
:102B4000F07F0144814425B142896DBD37071000F3
:102B50007D1701113373B70093D84601758F935ECB
:102B6000D60122CC26CA0E0393D445019357D50132
:102B70000E0706CE4AC84EC693F8F87F130EF07FB4
:102B800033E7EE0093F4F47F13D4F50133E36700E9
:102B9000131F3500FD82931E36006380C81993C64B
:102BA0001600B38514416305D4126351B018638BCA
:102BB000081AB70780005D8F6381C45993078003AB
:102BC00063C4B734FD4763C5B748930700028D8FD0
:102BD000B3D9BE003318F700B39EFE003368380146
:102BE0003357B700B339D001336838013303E340BA
:102BF000B3090F41B3373F013306F3409317860003
:102C000063D30724370980007D1933792601630FC8
:102C1000092C4A85EF106003130785FF9307000214
:102C2000998FB3D7F9003316E900D18FB399E90032
:102C30006344972A058F13061700FD4663C5C63AFD
:102C400013070002118FB3D6C9003398E9003397F8
:102C5000E700558F33380001B369070133D6C70049
:102C6000814493F7790081CF93F6F9009147638807
:102C7000F6009386490033B836014296B689931719
:102C8000860063D6071C138714009307F07F05881E
:102C90006306F720B70780FFFD17F18F1398D70160
:102CA00093D93900A60733683801B1831377F77FCA
:102CB0009396C7005207B1827E04D98EC18EF2402E
:102CC0006244D2444249B2494285B6850561828058
:102CD0006356B00A638A0812B70780005D8F638766
:102CE000C42D9307800363C7B718FD4763D2B73C71
:102CF000138805FE93070002B3590701638AF500A4
:102D000093070004B385B7403317B700B3EEEE0066
:102D10003338D0013368380195A2B367D701938562
:102D2000148099E393C61600630AD404D1E1938713
:102D3000140093F7E77F6399071EB367E3013368D5
:102D4000D701639204166382073C63160842131886
:102D500035009316D3011358380033E80601935712
:102D6000330019A2B367D7016385071A9387F5FF6C
:102D7000638B073A638CC523BE8589B56399051CAF
:102D80009386140093F7E67FC1EFB367E301639086
:102D90000436638D0744B367D701639407460E0575
:102DA0001318D3010D813368A800935733006DA821
:102DB000B385984063970420B367E301638D0730C0
:102DC0009387F5FF638907401305F07F6383A52090
:102DD000BE859307800363C2B72AFD4763C8B73C2B
:102DE000930700028D8F3318F3003356BF00B317DB
:102DF000FF003368C800B339F0003353B3003368C1
:102E0000380133076740B5ACB367D7016383071058
:102E10009387F5FF638F071E6380C52FBE85D1B5ED
:102E20009307F07F638BF606FA9E33B6EE01B30785
:102E3000E300B2971398F70193DE1E00B369D8013F
:102E400013D61700B68493F77900E39F07E0931732
:102E5000D60113D839003368F800A6859357360099
:102E60001307F07F6380E506B207B18313F7F57FA0
:102E700005883DBD3367D7013338E000B309E80169
:102E8000B3B7E9013386670093178600E3DD07FADD
:102E900085049307F07F639CF41805881307F07F7F
:102EA0008147014831B5639107106301083C13184D
:102EB00036009317D701135838003368F80036846A
:102EC00093573700B367F800E9DB01441307F07F3D
:102ED000B70708000148E9BB370680FF7D167D8EE5
:102EE00093F77900998CE39107D895B74E85EF0059
:102EF000D05513078501FD47E3D2E7D2130685FFBE
:102F0000B397C90081492DB33368D7013338000125
:102F1000C5B1131835009317D3011358380033681F
:102F2000F800935733002DBFB309DF413309E34065
:102F300033363F013309C9409317890063CA07201C
:102F400033E82901E31508CC8147014431BFB3853B
:102F5000984063810414B70680009307F07F3363C1
:102F6000D3006381F8209307800363CCB722FD4729
:102F700063C9B72C930700028D8F3318F300B35643
:102F8000BF00B317FF003368D800B339F0003353E4
:102F9000B300336838011A97B309D801B3B7D90120
:102FA0003386E700C684CDB5E31108F21318350067
:102FB0009317D301135838003368F8009357330040
:102FC00011B7370580009307F07F3363A300E392C6
:102FD000F8E00E061318D7010D823368C800935726
:102FE00037003684C5B505179306000233D7E700CE
:102FF000630AD600930600043386C6403396C700A2
:10300000B3E9C90033383001B369E80001468144AF
:103010001DBDB309DF01B307E30033BFE901338608
:10302000E701931786008544E3DF07E08944B7078B
:1030300080FFFD17F18F13D7190013F819003368BB
:1030400007019399F701B3E9090113D6170011B9E4
:10305000138805FE93070002B3590701638AF50040
:1030600093070004B385B7403317B700B3EEEE0003
:103070003338D00133683801A5BE3363E3013338F8
:103080006000B3890E41B3B73E013306F740C684F2
:103090003684ADB6B367E301638707189387F5FFFE
:1030A000638C071C9306F07F638ED50ABE8565BDD1
:1030B000930700028D8FB3D9BE003318F700B39E7B
:1030C000FE00336838013357B700B339D001336895
:1030D00038013A9365B3131836009317D701135884
:1030E000380033E8070136849357370095BBBDCBD2
:1030F0003367D701E31B07DC0E051318D3010D81DD
:103100003368A8009357330075BBE30F08E2131828
:1031100036009317D701135838003368F800368407
:103120009357370091B3B309DF41B307E340333F0F
:103130003F013386E7418544D1B413183500931617
:10314000D3011358380033E80601935733009DBB71
:10315000B389EE413306674033B93E013309264156
:10316000368475B40E061318D7010D823368C80073
:103170009357370081BBB309DF41B307E3403336D0
:103180003F013386C7409317860063D7070AB38988
:10319000EE41B3076740B3BE3E013386D741368464
:1031A000C9B43363E30133386000FDB3138805FE0F
:1031B00093070002B3590301638AF50093070004E3
:1031C000B385B7403313B300336F6F003338E0017A
:1031D000336838017DB5B389EE41B3076740B3BEAC
:1031E0003E013386D7413684854409BC1318360026
:1031F0009317D701135838003368F80093573700F6
:10320000A5B1B309DF01B307E30033BFE90133869A
:10321000E70193178600E3D807C2B70780FFFD17C1
:103220007D8E85440DB10E061318D7010D823368CB
:10323000C800935737002DB133E8C900E30608D022
:1032400019B1138805FE93070002B3590301638A7D
:10325000F50093070004B385B7403313B300336F11
:103260006F003338E001336838013DB30144130780
:10327000F07FB70708002DBCB309DF01B307E300F7
:10328000B3BED9013386D70169BB411106C622C43A
:1032900026C20DCD9357F541B3C4A7009D8C2A8457
:1032A0002685EF00901A9306E041898EA9477D801C
:1032B00093F6F67F63CDA7022D47098FB3D7E400BD
:1032C0005505B207B394A400B18329A001448146F7
:1032D00081478144B207D206B1837E04D58FC18F66
:1032E000B24022442685BE85924441018280551514
:1032F000B397A400B207B1838144E9BF797122D4A6
:10330000135475014ECE52CC9319950006D626D291
:103310004AD056CA5AC81374F40F93D99900135A55
:10332000F50169C49307F00F6308F40E9397390011
:1033300037070004B3E9E700130414F88144014B94
:1033400013D77501939A95001377F70F93DA9A00C4
:1033500013D9F50145CF9307F00F630CF7028E0ADE
:10336000130717F8B7070004B3EAFA003A940146C6
:1033700033452A01BD47AA869305140063E29710DE
:1033800017170000130747108A04BA949C40BA9795
:1033900082871304F40F63980A0C93E4240009460F
:1033A000C1BF01451307F00FB7074000B2502254C8
:1033B000A6075E07A5837E05D98F92540259F2496C
:1033C000624AD24A424B5D8D45618280CA86D68967
:1033D000328B89476301FB0A8D47E304FBFC854779
:1033E00036856312FB1A01478147C9B7639E0904FA
:1033F00013D77501939A95001377F70F9144014401
:10340000054B93DA9A0013D9F50131F7639D0A0051
:1034100093E414000546A9BF63930902A144130471
:10342000F00F094B31BF5685EF0030029307B5FF0F
:10343000098CB39AFA001304A4F8014615BFB144ED
:103440001304F00F0D4BEDBD4E852EC6EF00E07F4F
:103450009307B5FF1304A0F8B399F900098C8144D0
:10346000014BB245F1BD93E434000D4611B78947D5
:10347000D286E313FBF636851307F00F81473DB77D
:1034800041639306F3FF13D6090193D80A01B3F7FA
:10349000D900B3FADA0033885703B389F802135717
:1034A0000801B30A5603D6994E9733061603637381
:1034B00057011A96C167FD17B376F7003378F80005
:1034C000C206C2969399660093570701B33930013B
:1034D000E982B2979A07B3E6D900B3E9D700939788
:1034E000490063D9070013D7190093F71900B3698E
:1034F000F7002E841307F4076350E00493F7790074
:1035000099C793F7F90091466383D7009109939780
:10351000490063D90700B70700F8FD17B3F9F900B0
:10352000130704089307E00F63CBE7049397690040
:10353000A5831377F70F9DBD8547B386E74011C775
:103540006D4601478147E343D6E61307E409339705
:10355000E9003337E000B3D7D900D98F13F77700EC
:1035600019C713F7F70091466303D7009107139724
:103570005700634C07009A07A583014705BD130751
:10358000F00F814725B52E84B5B70547814739BD72
:103590003707800041117D179356750113D87501C7
:1035A000B377A70093F6F60F935EF5013376B70075
:1035B00026C24AC01378F80F06C622C41303F00FC0
:1035C0003E8E3689F684139F3700FD811315360031
:1035D000B38806416302681093C51500638CBE1062
:1035E0006354100D631008106304051EFD18B30723
:1035F000AF40638608029307F00F6388F616ED4725
:1036000063C7172913070002330717413317E50073
:10361000B35715013337E000D98FB307FF40139735
:1036200057006351071A370400047D147D8C2285EE
:10363000292D6D15B317A400634E251B33052541B5
:103640001304150013070002018F3397E700333787
:10365000E000B3D78700D98F014913F7770019C766
:1036600013F7F70091466303D700910713975700AC
:10367000635E0714930619001307F00F93FE1400FE
:103680006386E6169A07A58393F6F60FA607B2405F
:10369000224413D59700DE069397FE01558D924480
:1036A00002495D8D410182806392080A13871600EA
:1036B0001377E70F631B07146394062263020F203E
:1036C00071D5B307AF401397570063550722B3076F
:1036D000E5410149AE8451B7E30005F0638ABE0AB3
:1036E000E35410FD9307F00F6381F608B707000459
:1036F0005D8D31B7635E1009630108089307F00F11
:103700006385F606B70700045D8DED4763C0171F9C
:1037100013070002330717413317E500B3571501AC
:103720003337E000D98FFA9713975700635C070887
:1037300005091307F00F630BE90AB706007E13D7DC
:103740001700FD16858B758FD98F01BF3307D840C1
:1037500063950610630D0F147D176303071A930713
:10376000F00F6314F810AE84328E630F0E06814E94
:103770009306F00FB707400011BF39C9FD18B30712
:10378000AF00E38308FA9307F00FE390F6F8F1BF78
:1037900063990808138916001377E90F6316071257
:1037A000639B061063030F16E30205EEB307AF0039
:1037B00013975700014963570700370700FC7D172F
:1037C000F98F054913F77700E31C07E813DE37008C
:1037D0009307F00FE30BF9F893179E00A5839376F8
:1037E000F90F93FE14005DB593FE14009306F00FDD
:1037F000814769BD370700FC7D17F98F13F7770004
:103800003309A940E31E07E4D1B73304AF4093174F
:10381000540063C3070CE31C04E0814E81468147DA
:10382000B5B53307D840B5C69307F00FE30EF8F2ED
:10383000B7070004336FFF00ED4763CDE70C930734
:103840000002998FB317FF003357EF00B337F00032
:103850005D8FB307A7004289C1BD9307F00FE30452
:10386000F8F0B7070004336FFF00ED4763C2E708C5
:1038700093070002998FB317FF003357EF00B33758
:10388000F000D98FB307F5404289AE8449BB854724
:1038900069B3630E0F067D17B307AF004289E305D6
:1038A00007E89307F00FE319F8F8328E7DBD328EEA
:1038B0004289AE8431BFE3090FEAE30805EA45BD5A
:1038C0000DCDAE8EB287D9B39307F00FE300F9F2B6
:1038D000B307AF008583FDB53304E541AE8481BBFA
:1038E000E31D0FFCE30505E8AE84BDBD854725BD9E
:1038F000854749BF0149E39707EC814E814779B37A
:10390000B307E5414289AE8419BBB28741B3328E19
:1039100042897DBD054735BF1357750137068000C5
:103920009307F6FF1377F70F9305E007B3F6A700A9
:103930009357F501014563F4E50099C382808280C5
:103940009307E0097D55E3EBE7FE93055009B3E7E4
:10395000C60063D7E5001307A7F63395E70082801A
:10396000130560093307E54033D5E7008280411134
:1039700006C622C426C20DCD9357F54133C4A70015
:103980001D8CAA842285D1249307E0093387A740A0
:1039900093076009FD8063CCE702A1469377F70F98
:1039A00063D5A60061153314A4002604258021A048
:1039B000814481470144260413559400B2402244B7
:1039C000DE07FE045D8D458D9244410182809307A0
:1039D000900963DDE7009307B5019546B317F4003E
:1039E000898E3354D400B337F0005D8C954763D68D
:1039F000A7009307B5FF3314F400B70600FCFD16CB
:103A0000937774003376D40085C39377F40091459F
:103A1000638CB70011069317560063D7070093070E
:103A2000F009758E3387A7401314660025809377BD
:103A3000F70F51B7135775011377F70F411193071C
:103A4000170022C426C21314950006C693F7E70F89
:103A500025809354F50185C7935734001307073821
:103A60007604B2075207B1831395F401D98FC98F39
:103A7000B240228522449244BE854101828005EBFA
:103A800039C42285D922A94763C6A7042D47098FC7
:103A9000930755013357E4003314F4009317C7001C
:103AA00013079038098FB1831377F77F5DBF01CC7F
:103AB00013573400B7070800D98FB2077604B183D3
:103AC0001307F07F79BF1307F07F814759BF014784
:103AD000814741BF130755FF3317E40001447DBF01
:103AE00093D645019397C50093F6F67FB18313866D
:103AF00016008E071357D5011376E67FFD815D8F83
:103B00009318350035CE138806C89307E00F63DDA0
:103B100007018147139597009306F00FDE06258174
:103B2000FE05558D4D8D82806355000B9317650002
:103B30000E07B337F000D98F93D8D801B3E7170138
:103B400013F777006301071013F7F700914663033B
:103B5000D7009107370700047D8F75C7130718003A
:103B60001306F00F9376F70FE305C7FA9A07A583BC
:103B700013959700DE062581FE05558D4D8D8280BB
:103B8000B367170199EE85CF95479A07A5831395DB
:103B9000970093F6F60FDE062581FE05558D4D8DB7
:103BA0008280A5DBB7074000139597009306F00FBE
:103BB000DE0681452581FE05558D4D8D828081472C
:103BC000139597008146DE062581FE05558D4D8DA6
:103BD0008280A5576348F804F94737068000B38709
:103BE00007417D45598E6351F504795733070741E5
:103BF000130500023357E6006388A700938626CAA0
:103C0000B316D600B3E8D800B3371001D98F13F735
:103C10007700014815FB139757008546E34807F4E2
:103C20008146A5B781468DB7938626C83397D800BD
:103C30003337E000B316D600B3D8F800B367D70027
:103C4000B3E7F800E9B7C28689B7C167637CF502BC
:103C50009307F00F1307000263EBA700971700000C
:103C600093878786AA9788233305A740828021817E
:103C70009717000093874785AA97882361473305E4
:103C8000A7408280B7070001636DF5006181971737
:103C9000000093876783AA97882321473305A740AD
:103CA000828041819717000093870782AA97882313
:103CB00041473305A7408280B3C7A5008D8B3307EA
:103CC000C50081E78D4763EDC700AA87637EE508DD
:103CD000942185078505A38FD7FEE3EBE7FE82805D
:103CE00093763500AA8789CA942185078505A38F15
:103CF000D7FE93F63700C5BF9376C7FF138606FE3F
:103D000063F0C70683A3050083A2450083AF850047
:103D100003AFC50083AE050103AE450103A38501D2
:103D200083A8C5019385450223A0770003A8C5FF9A
:103D300023A2570023A4F70123A6E70123A8D70154
:103D400023AAC70123AC670023AE1701938747025C
:103D500023AE07FF75B790419107910523AEC7FECB
:103D6000E3EBD7FEE3E6E7F6828000000000000008
:103D700015AE47E17A14FA3F7B14AE47E17AF83F7B
:103D800000917EFB3A701040E17A14AE47E1F63FB5
:103D900000007A44563A2020202E20202020560071
:103DA000493A20202E2020202041000050574D313C
:103DB0003A2020202025000050574D323A20202064
:103DC00020250000000000000000000000FEAF40C1
:103DD0000000006066660A400AD7A3703D0AFB3FF8
:103DE0003D0AD7A3703DFA3F9A9999999999E13F75
:103DF00000000000000028409A9999999999C93FBC
:103E0000703D0AD7A370F93F2B0000002D00000081
:103E10002000000000000000000000000000000082
:103E200000000000000000F8000000000000003367
:103E30003000000000100C06100C0600000000000E
:103E40000000000040C07840C0784000043F0404F7
:103E50003F040400007088FC08300000001820FFB8
:103E6000211E0000F008F000E018000000211C03F3
:103E70001E211E0000F00888700000001E2123246F
:103E80001927211010160E0000000000000000008D
:103E900000000000000000E018040200000000071D
:103EA0001820400000020418E00000000040201824
:103EB00007000000404080F0804040000202010FF7
:103EC00001020200000000F0000000000101011FDB
:103ED00001010100000000000000000080B070003F
:103EE00000000000000000000000000000010101CF
:103EF000010101010000000000000000003030005E
:103F00000000000000000000806018040060180637
:103F10000100000000E010080810E000000F102071
:103F200020100F00001010F8000000000020203FBB
:103F30002020000000700808088870000030282445
:103F400022213000003008888848300000182020E6
:103F500020110E000000C02010F80000000704240B
:103F6000243F240000F80888880808000019212050
:103F700020110E0000E0108888180000000F1120AA
:103F800020110E0000380808C83808000000003F63
:103F9000000000000070880808887000001C2221C2
:103FA00021221C0000E010080810E000000031226F
:103FB00022110F00000000C0C0000000000000300F
:103FC0003000000000000080000000000000806061
:103FD00000000000000080402010080000010204E2
:103FE00008102000404040404040400004040404C9
:103FF0000404040000081020408000000020100885
:1040000004020100007048080808F00000000030B9
:1040100036010000C030C828E810E0000718272447
:1040200023140B000000C038E0000000203C2302F5
:104030000227382008F8888888700000203F202058
:1040400020110E00C030080808083800071820208A
:104050002010080008F808080810E000203F202081
:1040600020100F0008F88888E8081000203F202062
:104070002320180008F88888E8081000203F200056
:1040800003000000C030080808380000071820208E
:10409000221E020008F808000008F808203F21014D
:1040A00001213F20000808F8080800000020203FF8
:1040B0002020000000000808F8080800C080808068
:1040C0007F00000008F888C028180800203F200161
:1040D0002638200008F8080000000000203F2020BB
:1040E0002020300008F8F800F8F80800203F003FD2
:1040F000003F200008F830C00008F808203F2000EA
:1041000007183F00E01008080810E0000F102020FA
:1041100020100F0008F808080808F000203F2101CF
:1041200001010000E01008080810E0000F18242426
:1041300038504F0008F8888888887000203F200099
:10414000030C30200070880808083800003820214F
:1041500021221C00180808F8080818000000203F59
:104160002000000008F808000008F808001F2020C0
:1041700020201F000878880000C838080000073891
:104180000E010000F80800F80008F800033C0700E2
:10419000073C0300081868808068180820302C034A
:1041A000032C30200838C800C83808000000203F21
:1041B0002000000010080808C83808002038262110
:1041C00020201800000000FE020202000000007F14
:1041D00040404000000C30C0000000000000000122
:1041E0000638C00000020202FE000000004040400D
:1041F0007F00000000000402020204000000000032
:1042000000000000000000000000000080808080AE
:104210008080808000020204000000000000000096
:10422000000000000000808080800000001924222F
:1042300022223F2008F8008080000000003F11206B
:1042400020110E000000008080800000000E112070
:1042500020201100000000808088F800000E11204E
:1042600020103F200000808080800000001F22225C
:1042700022221300008080F0888888180020203FC8
:10428000202000000000808080808000006B9494DB
:104290009493600008F8008080800000203F210097
:1042A00000203F2000809898000000000020203F60
:1042B00020200000000000809898000000C080804E
:1042C000807F000008F8000080808000203F2402EA
:1042D0002D302000000808F8000000000020203FDA
:1042E000202000008080808080808000203F20008F
:1042F0003F20003F8080008080800000203F210020
:1043000000203F200000808080800000001F2020CF
:1043100020201F00808000808000000080FFA120FE
:1043200020110E000000008080808000000E11200F
:1043300020A0FF80808080008080800020203F219E
:104340002000010000008080808080000033242451
:1043500024241900008080E0808000000000001FFD
:10436000202000008080000000808000001F2020AE
:1043700020103F20808080000080808000010E306F
:104380000806010080800080008080800F300C03D0
:104390000C300F0000808000808080000020312ED3
:1043A0000E312000808080000080808080818E70AF
:1043B0001806010000808080808080000021302C61
:1043C0002221300000000000807C0202000000007A
:1043D000003F404000000000FF000000000000001F
:1043E000FF0000000002027C800000000040403F0F
:1043F00000000000000601010202040400000000A9
:1044000000000000BADDFFFF3EDCFFFF4EDDFFFFD6
:1044100056DDFFFF4EDDFFFF6EDCFFFF4EDDFFFFD1
:1044200056DDFFFF3EDCFFFF3EDCFFFF6EDCFFFFE3
:1044300056DDFFFFB0DDFFFFB0DDFFFFB0DDFFFFAA
:104440006EDCFFFF60E4FFFF52E3FFFF52E3FFFF7C
:1044500050E3FFFF58E3FFFF58E3FFFF1EE3FFFFBA
:1044600050E3FFFF58E3FFFF1EE3FFFF58E3FFFFAA
:1044700050E3FFFF4CE4FFFF4CE4FFFF4CE4FFFF81
:104480001EE3FFFFFCEFFFFF4AEFFFFF4AEFFFFFD6
:1044900048EFFFFF4EEFFFFF4EEFFFFF1EEFFFFF66
:1044A00048EFFFFF4EEFFFFF1EEFFFFF4EEFFFFF56
:1044B00048EFFFFFEAEFFFFFEAEFFFFFEAEFFFFF42
:1044C0001EEFFFFF000102020303030304040404C0
:1044D0000404040405050505050505050505050590
:1044E0000505050506060606060606060606060670
:1044F000060606060606060606060606060606065C
:10450000060606060707070707070707070707073F
:10451000070707070707070707070707070707072B
:10452000070707070707070707070707070707071B
:10453000070707070707070707070707070707070B
:1045400007070707080808080808080808080808EF
:1045500008080808080808080808080808080808DB
:1045600008080808080808080808080808080808CB
:1045700008080808080808080808080808080808BB
:1045800008080808080808080808080808080808AB
:10459000080808080808080808080808080808089B
:1045A000080808080808080808080808080808088B
:1045B000080808080808080808080808080808087B
:0445C00008080808D7
:1045C40000000000000000000102030406070809BF
:1045D40000000000010203040102030406070809A5
:1045E40000000000000000000000000000000000C7
:1045F40000000000000000000000000000000000B7
:1046040000000000000000000000000000000000A6
:104614000000000000000000000000000000000096
:104624000000000000000000000000000000000086
:104634000000000000000000000000000000000076
:104644000000000000000000000000000000000066
:104654000000000000000000000000000000000056
:104664000000000000000000000000000000000046
:104674000000000000000000000000000000000036
:104684000000000000000000000000000000000026
:104694000000000000000000000000000000000016
:1046A4000000000000000000000000000000000006
:1046B40000000000000000000000000000000000F6
:1046C40000000000000000000000000000000000E6
:1046D40000000000000000000000000000000000D6
:1046E40000000000000000000000000000000000C6
:1046F40000000000000000000000000000000000B6
:1047040000000000000000000000000000000000A5
:104714000000000000000000000000000000000095
:104724000000000000000000000000000000000085
:104734000000000000000000000000000000000075
:104744000000000000000000000000000000000065
:104754000000000000000000000000000000000055
:104764000000000000000000000000000000000045
:104774000000000000000000000000000000000035
:104784000000000000000000000000000000000025
:104794000000000000000000000000000000000015
:1047A4000000000000000000000000000000000005
:1047B40000000000000000000000000000000000F5
:1047C40000000000000000000000000000000000E5
:1047D40000000000000000000000000000000000D5
:1047E40000000000010000000000000000000000C4
:1047F400F401200300A24A04020406080000000099
:00000001FF
