:030000000200E318
:0C00E300787FE4F6D8FD75812502012A23
:10024C0012113F065B4F666D7D077F6F777C395EC1
:10025C0079710000080911111111111111110223EA
:02026C00000090
:040228007F0A7E00CB
:10022C00E4FDFCC3ED9FEC9E5015E4FBFA0BBB0008
:0F023C00010AEB64904A70F50DBD00010C80E4DF
:01024B002290
:10000300E4F5257590F7E59064F76028120228AFB0
:1000130090EF2449601124E0601224F060132470EF
:100023007012752501800D752505800875250980D9
:100033000375250DE590B4F7FB7590FBE59064FB24
:100043006028120228AF90EF2445601124E060126B
:1000530024F0601324707012752502800D75250637
:10006300800875250A800375250EE590B4FBFB75A2
:1000730090FDE59064FD6028120228AF90EF2443C1
:10008300601124E0601224F060132470701275254F
:1000930003800D752507800875250B800375250FD3
:1000A300E590B4FDFB7590FEE59064FE60281202B6
:1000B30028AF90EF2442601124E0601224F0601313
:1000C30024707012752504800D7525088008752528
:0F00D3000C8003752510E590B4FEFBAF257E0071
:0100E20022FB
:10016F00E4F523F524E5237054E524B40800504D3D
:10017F00900186F828287302019E0201A20201A6AF
:10018F000201AA0201AE0201B60201BE0201C6D2ED
:10019F00A4800ED2A48012D2A48016D2A4801AC238
:1001AF00A4D2A3D2A28016C2A4D2A3C2A2800EC28E
:1001BF00A4C2A3D2A28006C2A4C2A3C2A27409255C
:1001CF0024F8E62411F8E6F5807F017E0012022C58
:1001DF00E4F5800524E52470020523C39408E52384
:0501EF00940040812294
:1001F4001200038F08E5086026E4F523F524AF24F4
:10020400740A2FF8E6FE74092FF8A6060524E524DF
:10021400700205236407452370E4E50814F5101201
:04022400016F80CC1A
:1000EF000201F4E493A3F8E493A34003F68001F232
:1000FF0008DFF48029E493A3F85407240CC8C33312
:10010F00C4540F4420C8834004F456800146F6DFE0
:10011F00E4800B010204081020408090024CE47E22
:10012F00019360BCA3FF543F30E509541FFEE493D5
:10013F00A360010ECF54C025E060A840B8E493A39C
:10014F00FAE493A3F8E493A3C8C582C8CAC583CAC7
:10015F00F0A3C8C582C8CAC583CADFE9DEE780BE7F
:01026E00008F
:00000001FF
