:030000000201FBFF
:0C01FB00787FE4F6D8FD75811C020242FA
:1002AB00150860554C48403932BFAA988F8072654B
:0702BB007E542F1EFFE3CA71
:040287007F147E0062
:10028B00E4FDFCC3ED9FEC9E5015E4FBFA0BBB00A9
:0F029B00010AEB64904A70F50DBD00010C80E480
:0102AA002231
:0B02C300EF1FAC0670011E4C70F6220D
:0302CE00B2B322A6
:1000030075A0FF7580BFE5A0F4603D120287E5A0EF
:10001300F46035C2B4E5A0B4FB0C1202CEAF087E87
:10002300001202C380EFE5A0B4FD0C1202CEAF0FA5
:100033007E001202C380EFE5A0B4FE0C1202CEAF25
:10004300167E001202C380EF75A0FF7580DFE5A066
:10005300F4603D120287E5A0F46035C2B4E5A0B4B4
:10006300FB0C1202CEAF097E001202C380EFE5A0A3
:10007300B4FD0C1202CEAF107E001202C380EFE576
:10008300A0B4FE0C1202CEAF177E001202C380EFA3
:1000930075A0FF7580EFE5A0F4603D120287E5A02F
:1000A300F46035C2B4E5A0B4FB0C1202CEAF0A7EF5
:1000B300001202C380EFE5A0B4FD0C1202CEAF1113
:1000C3007E001202C380EFE5A0B4FE0C1202CEAF95
:1000D300187E001202C380EF75A0FF7580F7E5A0BC
:1000E300F4603D120287E5A0F46035C2B4E5A0B424
:1000F300FB0C1202CEAF0B7E001202C380EFE5A011
:10010300B4FD0C1202CEAF127E001202C380EFE5E3
:10011300A0B4FE0C1202CEAF197E001202C380EF10
:1001230075A0FF7580FBE5A0F4603D120287E5A092
:10013300F46035C2B4E5A0B4FB0C1202CEAF0C7E62
:10014300001202C380EFE5A0B4FD0C1202CEAF1380
:100153007E001202C380EFE5A0B4FE0C1202CEAF04
:100163001A7E001202C380EF75A0FF7580FDE5A023
:10017300F4603D120287E5A0F46035C2B4E5A0B493
:10018300FB0C1202CEAF0D7E001202C380EFE5A07E
:10019300B4FD0C1202CEAF147E001202C380EFE551
:1001A300A0B4FE0C1202CEAF1B7E001202C380EF7E
:1001B30075A0FF7580FEE5A0F46038120287C2B413
:1001C300E5A0B4FB0C1202CEAF0E7E001202C38078
:1001D300EFE5A0B4FD0C1202CEAF157E001202C3F0
:1001E30080EFE5A0B4FE0C1202CEAF1C7E0012021B
:0801F300C380EFD2B402000347
:10020700020003E493A3F8E493A34003F68001F20A
:1002170008DFF48029E493A3F85407240CC8C333F8
:10022700C4540F4420C8834004F456800146F6DFC7
:10023700E4800B01020408102040809002ABE47EAA
:10024700019360BCA3FF543F30E509541FFEE493BC
:10025700A360010ECF54C025E060A840B8E493A383
:10026700FAE493A3F8E493A3C8C582C8CAC583CAAE
:10027700F0A3C8C582C8CAC583CADFE9DEE780BE66
:0102C200003B
:00000001FF
