:03000000020138C2
:0C013800787FE4F6D8FD7581110200E923
:040129007F017E00D4
:0B012D00EF1FAC0670011E4C70F622A4
:10010B00D3EF9400EE940040147D6E7C00ED1D70D7
:0D011B00011CED4C70F7EF1F70E61E80E335
:0101280022B4
:09014400B2A57F0A7E0002012D24
:1000E900E4FDF50BD288D2A8D2AFD2B2AB10BB4592
:1000F90009E4F5100DBD03027D01BD01EF120144B4
:0201090080EA8A
:03000300020006F2
:10000600C0E0C0D075D000C000C002C003C004C0AC
:0500160005C006C00753
:10001B00750C00E4FDF50D30B2030200D67A037BBC
:10002B00E820B213EB4A600F120129EB1B70011A87
:10003B00EB4A70ED0200D620B2030200C67A017BB8
:10004B00F430B212EB4A600E120129EB1B70011A4D
:10005B00EB4A70ED80757D00750D007A027B5820A0
:10006B00B212EB4A600E120129EB1B70011AEB4A1C
:10007B0070ED80577A007B1430B2127F0A7E00122B
:10008B00012D050CE50CD3941440ED803E740E2D20
:10009B00F8C000E6FFC313D000F6E50CC39408408C
:1000AB0008740E2DF8E64480F6750C00050DE50D71
:1000BB00C3940840A60DED6404709DE511F4651022
:0B00CB0060097D04780EE4F608DDFCFF
:1000D600D007D006D005D004D003D002D000D0D0AF
:0300E600D0E03235
:00000001FF
