:0300000002000EED
:0C000E00787FE4F6D8FD758115020055DE
:1001E5000A083F065B4F666D7D077F6F0212001E92
:0401F50002140000F0
:0801BD00F8E6F5807F017E00E9
:1001C500E4FDFCC3ED9FEC9E5015E4FBFA0BBB0070
:0F01D500010AEB64904A70F50DBD00010C80E447
:0101E40022F8
:1001FA00900000B2A51201C1A3E582B4F4F5E5832B
:03020A00B401F04C
:01020D0022CE
:080003008F993099FDC299228A
:03000B00020137B8
:10013700C0E0C0D075D000C006C007758CFC758ABA
:10014700180515E51570020514B4E822E514B40383
:100157001D751400751500E513151370021512AF00
:1001670013AE12120003E51345127002C28CD007BA
:07017700D006D0D0D0E03229
:1000EF00C2A2C2A3C2A4AE12AF137C007D0A12003B
:1000FF009A74082D1201BDE4F580AE12AF13FC7D8A
:10010F000A12009AC3E5139DFFE5129CFE7C007D49
:10011F000A12009AEF4E600FD2A2C2A3C2A47408B3
:08012F002F1201BDE4F580224E
:10017E00438901758CFC758A18D2A943892175981B
:10018E0050758DFD758BFDD28ED2AFD28CD2ACE573
:10019E001345127015C2A2C2A3C2A4850880120113
:0F01AE00FA7FF47E011201C580E51200EF80E0B8
:10001A0002017EE493A3F8E493A34003F68001F27D
:10002A0008DFF48029E493A3F85407240CC8C333E7
:10003A00C4540F4420C8834004F456800146F6DFB6
:10004A00E4800B01020408102040809001E5E47E60
:10005A00019360BCA3FF543F30E509541FFEE493AB
:10006A00A360010ECF54C025E060A840B8E493A372
:10007A00FAE493A3F8E493A3C8C582C8CAC583CA9D
:10008A00F0A3C8C582C8CAC583CADFE9DEE780BE55
:0101F9000005
:10009A00BC000BBE0029EF8DF084FFADF022E4CC4A
:1000AA00F875F008EF2FFFEE33FEEC33FCEE9DEC13
:1000BA00984005FCEE9DFE0FD5F0E9E4CEFD22ED59
:1000CA00F8F5F0EE8420D21CFEADF075F008EF2FA3
:1000DA00FFED33FD4007985006D5F0F222C398FD94
:0500EA000FD5F0EA2231
:00000001FF
