:0300000002000EED
:0C000E00787FE4F6D8FD75810E02020E2A
:0B021F005389F0438901D2A9D2AF221D
:0B022A0053890F438910D2ABD2AF22E2
:060168008E0C8F0D8D0EC0
:10016E00E50D450C7005F50C750D01E50ED3946487
:10017E004003750E64E50E7003C2A022E50EB46452
:10018E0003D2A022AE0CAF0DAD0E7C0012013BE4EB
:10019E007B64FAF9F81200A9C3E49FF509E49EF511
:1001AE0008AE0CAF0DAB07AA06E4F9F8C37464955C
:1001BE000EFFE49400FE3395E0FDFC12001EE47B7E
:1001CE0064FAF9F81200A9C3E49FF50BE49EF50A50
:0B01DE00D2A0E508F58C85098AD28CC0
:0101E90022F3
:03000B000201EA05
:1001EA00C0E0C2A0C28CE50AF58D850B8BD28ED0F9
:0201FA00E032F1
:03001B000201FCE3
:1001FC00C0E0D2A0C28EE508F58C85098AD28CD0DD
:02020C00E032DE
:10020E007FD07E077D5012021F12022A12016880D3
:01021E00FEE1
:10001E00E88FF0A4CC8BF0A42CFCE98EF0A42CFC81
:10002E008AF0EDA42CFCEA8EF0A4CDA8F08BF0A4FF
:10003E002DCC3825F0FDE98FF0A42CCD35F0FCEB5E
:10004E008EF0A4FEA9F0EB8FF0A4CFC5F02ECD3923
:0F005E00FEE43CFCEAA42DCE35F0FDE43CFC2290
:10006D0075F008758200EF2FFFEE33FECD33CDCC4A
:10007D0033CCC58233C5829BED9AEC99E5829840CD
:10008D000CF582EE9BFEED9AFDEC99FC0FD5F0D6AA
:10009D00E4CEFBE4CDFAE4CCF9A88222B800C1B9D4
:1000AD000059BA002DEC8BF084CFCECDFCE5F0CB12
:1000BD00F97818EF2FFFEE33FEED33FDEC33FCEB4B
:1000CD0033FB10D703994004EB99FB0FD8E5E4F906
:1000DD00FA227818EF2FFFEE33FEED33FDEC33FCF3
:1000ED00C933C910D7059BE99A4007EC9BFCE99AE7
:1000FD00F90FD8E0E4C9FAE4CCFB2275F010EF2F2C
:10010D00FFEE33FEED33FDCC33CCC833C810D7072B
:10011D009BEC9AE899400AED9BFDEC9AFCE899F866
:0E012D000FD5F0DAE4CDFBE4CCFAE4C8F922F9
:10013B00EC8EF0A4CCC5F0CCCDF8EFA4CEC5F02D51
:10014B00FDE43CFCE8A42EC8C5F03DFDE43CFCEF0F
:0D015B00A4FFE5F028FEE43DFDE43CFC229D
:00000001FF
