:0300000002000EED
:0C000E00787FE4F6D8FD75810D020055E6
:0C013A0002080006020A0000020C00008F
:10012A00438901758CFF758A06D2A9D2AFD28C2277
:10010A00E4FDFCC3ED9FEC9E5015E4FBFA0BBB002B
:0F011A00010AEB64904A70F50DBD00010C80E402
:0101290022B3
:1000D50030B10630B00320B22B7F0A7E0012010A30
:1000E50020B10675080075090230B1FD20B006750E
:1000F500080075090630B0FD20B2067508007509BF
:050105000A30B2FD22EA
:0800030012012A1200D580FB56
:03000B0002009A56
:10009A00C0E0C0D0758CFF758A06050BE50B7002AF
:1000AA00050AC39509E50A95085004D2908017C33A
:1000BA00E50B9450E50A94005004C2908008D2904F
:0B00CA00750A00750B00D0D0D0E032AA
:10001A00020003E493A3F8E493A34003F68001F2F9
:10002A0008DFF48029E493A3F85407240CC8C333E7
:10003A00C4540F4420C8834004F456800146F6DFB6
:10004A00E4800B010204081020408090013AE47E0B
:10005A00019360BCA3FF543F30E509541FFEE493AB
:10006A00A360010ECF54C025E060A840B8E493A372
:10007A00FAE493A3F8E493A3C8C582C8CAC583CA9D
:10008A00F0A3C8C582C8CAC583CADFE9DEE780BE55
:0101460000B8
:00000001FF
