:030000000200916A
:0C009100787FE4F6D8FD7581400200D8AD
:1001F600014000020A07D102380001023607D12069
:100206002A0C017E0154012F011E00FF00E300CBE2
:1002160000BF00AA0098008F008000720065005F92
:100226000055004C00480040003900330208000128
:04023600023C000185
:10027E00E4FDFCC3ED9FEC9E5015E4FBFA0BBB00B6
:0F028E00010AEB64904A70F50DBD00010C80E48D
:01029D00223E
:0B029E00EF1FAC0670011E4C70F62232
:10023B00C3E53D943CE53C94004011AE3CAF3D7CA6
:10024B00007D0A1201A1AA06AB0780047A007B028B
:10025B00753E00753F01D3E53F9BE53E9A5013B2C7
:10026B00A5AF0BAE0A12029E053FE53F70E8053EB7
:02027B0080E41D
:01027D00225E
:10011D0020B1367F0A7E0012027E20B12C12023BE6
:10012D00D3E50B9539E50A9538500885380A853998
:10013D000B80E774F6250BF50B74FF350AF50A05F0
:10014D003DE53D70D5053C80D120B0357F0A7E0060
:10015D0012027E20B02B12023BD3E50B9537E50A38
:10016D009536400885360A85370B80E7740A250BCE
:10017D00F50BE4350AF50AE53D153D70D6153C80C5
:02018D00D2227C
:1000030020B2247F147E0012027E30B2FD754001BF
:100013000509E50970020508D39415E50894004025
:100023000675080075091520B3267F147E00120299
:100033007E30B3FD754001E509150970021508C34B
:10004300E5099401E5089400500675080075090157
:10005300E54064017037AE08AF09FC7D1912018FCA
:100063008E3A8F3BD3E53B9400E53A9400401BB2B4
:10007300A5E50925E0240AF8E6FE08E6FF12029E3C
:0E008300E53B153B70DE153A80DAE4F54022CD
:0802A90012011D12000380F890
:10009D000202A9E493A3F8E493A34003F68001F2CE
:1000AD0008DFF48029E493A3F85407240CC8C33364
:1000BD00C4540F4420C8834004F456800146F6DF33
:1000CD00E4800B01020408102040809001F6E47ECC
:1000DD00019360BCA3FF543F30E509541FFEE49328
:1000ED00A360010ECF54C025E060A840B8E493A3EF
:1000FD00FAE493A3F8E493A3C8C582C8CAC583CA1A
:10010D00F0A3C8C582C8CAC583CADFE9DEE780BED1
:01023A0000C3
:10018F00EF8DF0A4A8F0CF8CF0A428CE8DF0A42E84
:02019F00FE223E
:1001A100BC000BBE0029EF8DF084FFADF022E4CC42
:1001B100F875F008EF2FFFEE33FEEC33FCEE9DEC0B
:1001C100984005FCEE9DFE0FD5F0E9E4CEFD22ED51
:1001D100F8F5F0EE8420D21CFEADF075F008EF2F9B
:1001E100FFED33FD4007985006D5F0F222C398FD8C
:0501F1000FD5F0EA2229
:00000001FF
